{
  "_format": "hh-sol-artifact-1",
  "contractName": "RangeOrdersPositionManager",
  "sourceName": "contracts/RangeOrdersPositionManager.sol",
  "abi": [
    {
      "inputs": [
        {
          "internalType": "address",
          "name": "_factory",
          "type": "address"
        },
        {
          "internalType": "address",
          "name": "_WETH9",
          "type": "address"
        }
      ],
      "stateMutability": "nonpayable",
      "type": "constructor"
    },
    {
      "inputs": [],
      "name": "WETH9",
      "outputs": [
        {
          "internalType": "address",
          "name": "",
          "type": "address"
        }
      ],
      "stateMutability": "view",
      "type": "function"
    },
    {
      "inputs": [
        {
          "components": [
            {
              "internalType": "address[]",
              "name": "owners",
              "type": "address[]"
            },
            {
              "internalType": "uint256[]",
              "name": "inputAmounts",
              "type": "uint256[]"
            },
            {
              "internalType": "uint256",
              "name": "totalInputAmount",
              "type": "uint256"
            },
            {
              "internalType": "address",
              "name": "tokenIn",
              "type": "address"
            },
            {
              "internalType": "address",
              "name": "tokenOut",
              "type": "address"
            },
            {
              "internalType": "uint24",
              "name": "fee",
              "type": "uint24"
            },
            {
              "internalType": "int24",
              "name": "tickLower",
              "type": "int24"
            },
            {
              "internalType": "int24",
              "name": "tickUpper",
              "type": "int24"
            }
          ],
          "internalType": "struct IRangeOrdersPositionManager.CreateOrdersParams",
          "name": "params",
          "type": "tuple"
        }
      ],
      "name": "createOrders",
      "outputs": [],
      "stateMutability": "payable",
      "type": "function"
    },
    {
      "inputs": [],
      "name": "factory",
      "outputs": [
        {
          "internalType": "address",
          "name": "",
          "type": "address"
        }
      ],
      "stateMutability": "view",
      "type": "function"
    },
    {
      "inputs": [
        {
          "internalType": "bytes32",
          "name": "positionHash",
          "type": "bytes32"
        },
        {
          "internalType": "uint256",
          "name": "positionIndex",
          "type": "uint256"
        },
        {
          "internalType": "address",
          "name": "owner",
          "type": "address"
        }
      ],
      "name": "liquidityBalances",
      "outputs": [
        {
          "internalType": "uint128",
          "name": "liquidityBalance",
          "type": "uint128"
        }
      ],
      "stateMutability": "view",
      "type": "function"
    },
    {
      "inputs": [
        {
          "internalType": "bytes[]",
          "name": "data",
          "type": "bytes[]"
        }
      ],
      "name": "multicall",
      "outputs": [
        {
          "internalType": "bytes[]",
          "name": "results",
          "type": "bytes[]"
        }
      ],
      "stateMutability": "payable",
      "type": "function"
    },
    {
      "inputs": [
        {
          "internalType": "bytes32",
          "name": "positionHash",
          "type": "bytes32"
        }
      ],
      "name": "positionIndexes",
      "outputs": [
        {
          "internalType": "uint256",
          "name": "positionIndex",
          "type": "uint256"
        }
      ],
      "stateMutability": "view",
      "type": "function"
    },
    {
      "inputs": [
        {
          "internalType": "bytes32",
          "name": "positionHash",
          "type": "bytes32"
        },
        {
          "internalType": "uint256",
          "name": "positionIndex",
          "type": "uint256"
        }
      ],
      "name": "positions",
      "outputs": [
        {
          "components": [
            {
              "internalType": "uint128",
              "name": "liquidity",
              "type": "uint128"
            },
            {
              "internalType": "bool",
              "name": "resolved",
              "type": "bool"
            }
          ],
          "internalType": "struct IRangeOrdersPositionManager.Position",
          "name": "position",
          "type": "tuple"
        }
      ],
      "stateMutability": "view",
      "type": "function"
    },
    {
      "inputs": [
        {
          "components": [
            {
              "internalType": "address",
              "name": "tokenIn",
              "type": "address"
            },
            {
              "internalType": "address",
              "name": "tokenOut",
              "type": "address"
            },
            {
              "internalType": "uint24",
              "name": "fee",
              "type": "uint24"
            },
            {
              "internalType": "int24",
              "name": "tickLower",
              "type": "int24"
            },
            {
              "internalType": "int24",
              "name": "tickUpper",
              "type": "int24"
            },
            {
              "internalType": "address",
              "name": "recipient",
              "type": "address"
            }
          ],
          "internalType": "struct IRangeOrdersPositionManager.ResolvePositionParams",
          "name": "params",
          "type": "tuple"
        }
      ],
      "name": "resolvePosition",
      "outputs": [],
      "stateMutability": "nonpayable",
      "type": "function"
    },
    {
      "inputs": [
        {
          "internalType": "uint256",
          "name": "amount0Owed",
          "type": "uint256"
        },
        {
          "internalType": "uint256",
          "name": "amount1Owed",
          "type": "uint256"
        },
        {
          "internalType": "bytes",
          "name": "data",
          "type": "bytes"
        }
      ],
      "name": "uniswapV3MintCallback",
      "outputs": [],
      "stateMutability": "nonpayable",
      "type": "function"
    },
    {
      "inputs": [
        {
          "components": [
            {
              "internalType": "uint256",
              "name": "positionIndex",
              "type": "uint256"
            },
            {
              "internalType": "address",
              "name": "tokenIn",
              "type": "address"
            },
            {
              "internalType": "address",
              "name": "tokenOut",
              "type": "address"
            },
            {
              "internalType": "uint24",
              "name": "fee",
              "type": "uint24"
            },
            {
              "internalType": "int24",
              "name": "tickLower",
              "type": "int24"
            },
            {
              "internalType": "int24",
              "name": "tickUpper",
              "type": "int24"
            },
            {
              "internalType": "uint128",
              "name": "liquidity",
              "type": "uint128"
            },
            {
              "internalType": "address",
              "name": "recipient",
              "type": "address"
            }
          ],
          "internalType": "struct IRangeOrdersPositionManager.WithdrawParams",
          "name": "params",
          "type": "tuple"
        }
      ],
      "name": "withdrawOrder",
      "outputs": [],
      "stateMutability": "nonpayable",
      "type": "function"
    },
    {
      "stateMutability": "payable",
      "type": "receive"
    }
  ],
  "bytecode": "0x60c06040523480156200001157600080fd5b5060405162002c6538038062002c65833981016040819052620000349162000070565b6001600160601b0319606092831b8116608052911b1660a052620000a7565b80516001600160a01b03811681146200006b57600080fd5b919050565b6000806040838503121562000083578182fd5b6200008e8362000053565b91506200009e6020840162000053565b90509250929050565b60805160601c60a05160601c612b6d620000f86000398060c5528061053152806118e152806119305280611b375280611b805280611bf4525080611102528061114b52806112865250612b6d6000f3fe6080604052600436106100b55760003560e01c8063ac9650d811610069578063d0d9ee791161004e578063d0d9ee791461021e578063d34879971461024b578063fe990ed61461026b57610139565b8063ac9650d8146101e9578063c45a01551461020957610139565b80636355a3d21161009a5780636355a3d2146101895780639325d1f9146101b657806395f7b891146101d657610139565b8063433421181461013e5780634aa4a4fc1461015e57610139565b3661013957336001600160a01b037f00000000000000000000000000000000000000000000000000000000000000001614610137576040805162461bcd60e51b815260206004820152600960248201527f4e6f742057455448390000000000000000000000000000000000000000000000604482015290519081900360640190fd5b005b600080fd5b34801561014a57600080fd5b506101376101593660046124c7565b610298565b34801561016a57600080fd5b5061017361052f565b60405161018091906126d7565b60405180910390f35b34801561019557600080fd5b506101a96101a43660046122da565b610553565b6040516101809190612a2e565b3480156101c257600080fd5b506101376101d13660046124d8565b61058a565b6101376101e43660046123e1565b6109cc565b6101fc6101f7366004612232565b610fc0565b60405161018091906127b2565b34801561021557600080fd5b50610173611100565b34801561022a57600080fd5b5061023e6102393660046122a1565b611124565b6040516101809190612a42565b34801561025757600080fd5b50610137610266366004612620565b611136565b34801561027757600080fd5b5061028b6102863660046122b9565b6111b4565b6040516101809190612a0c565b60006102a76020830183612216565b6102b76040840160208501612216565b6102c760608501604086016125e3565b6102d76080860160608701612312565b6102e760a0870160808801612312565b6040516020016102fb959493929190612739565b60408051808303601f1901815291815281516020928301206000818152600184528281208185528382205482529093529120805491925090600160801b900460ff16156103635760405162461bcd60e51b815260040161035a9061284b565b60405180910390fd5b60006103756040850160208601612216565b6001600160a01b031661038b6020860186612216565b6001600160a01b031610905060006103ce6103a96020870187612216565b6103b96040880160208901612216565b6103c96060890160408a016125e3565b611203565b5090506000816001600160a01b0316633850c7bd6040518163ffffffff1660e01b815260040160e06040518083038186803b15801561040c57600080fd5b505afa158015610420573d6000803e3d6000fd5b505050506040513d601f19601f820116820180604052508101906104449190612549565b5050505050915050821561048c5761046260a0870160808801612312565b60020b8160020b12156104875760405162461bcd60e51b815260040161035a906128f0565b6104c0565b61049c6080870160608801612312565b60020b8160020b126104c05760405162461bcd60e51b815260040161035a90612995565b6000806104d360c0890160a08a01612216565b6001600160a01b0316146104f6576104f160c0880160a08901612216565b6104f8565b335b905061052686848661051060808c0160608d01612312565b61052060a08d0160808e01612312565b866112b5565b50505050505050565b7f000000000000000000000000000000000000000000000000000000000000000081565b60009283526002602090815260408085209385529281528284206001600160a01b039092168452529020546001600160801b031690565b600061059c6040830160208401612216565b6105ac6060840160408501612216565b6105bc60808501606086016125e3565b6105cc60a0860160808701612312565b6105dc60c0870160a08801612312565b6040516020016105f0959493929190612739565b60408051601f1981840301815291815281516020928301206000818152600284528281208635825284528281203382529093529120549091506001600160801b03168061064360e0850160c086016124f4565b6001600160801b0316111561066a5760405162461bcd60e51b815260040161035a90612882565b60008281526001602090815260408083208635845290915280822091906106979060608701908701612216565b6001600160a01b03166106b06040870160208801612216565b6001600160a01b03161090506000806106d0610100880160e08901612216565b6001600160a01b0316146106f4576106ef610100870160e08801612216565b6106f6565b335b8354909150600090600160801b900460ff1661088b57600061074161072160408a0160208b01612216565b61073160608b0160408c01612216565b6103c960808c0160608d016125e3565b5090506000816001600160a01b0316633850c7bd6040518163ffffffff1660e01b815260040160e06040518083038186803b15801561077f57600080fd5b505afa158015610793573d6000803e3d6000fd5b505050506040513d601f19601f820116820180604052508101906107b79190612549565b5050505050915050841515600115151480156107e857506107de60c08a0160a08b01612312565b60020b8160020b12155b80610810575084158015610810575061080760a08a0160808b01612312565b60020b8160020b125b156108495761084488838761082b60a08e0160808f01612312565b8d60a001602081019061083e9190612312565b896112b5565b610888565b6108838261085d60a08c0160808d01612312565b61086d60c08d0160a08e01612312565b61087d60e08e0160c08f016124f4565b886113d8565b600192505b50505b8061092b576000806108ab6108a660a08b0160808c01612312565b6114f1565b905060006108c26108a660c08c0160a08d01612312565b9050600186151514156108f0576108e982826108e460e08e0160c08f016124f4565b611823565b925061090d565b61090a828261090560e08e0160c08f016124f4565b611870565b92505b61092761092060608c0160408d01612216565b86856118d9565b5050505b61093b60e0880160c089016124f4565b84546fffffffffffffffffffffffffffffffff1981166001600160801b03918216929092031617845561097460e0880160c089016124f4565b60009687526002602090815260408089209935895298815288882033895290529690952080546fffffffffffffffffffffffffffffffff1981166001600160801b039182169890980316969096179095555050505050565b6109d96020820182612a99565b90506109e58280612a4b565b905014610a045760405162461bcd60e51b815260040161035a906128b9565b6000610a166080830160608401612216565b610a2660a0840160808501612216565b610a3660c0850160a086016125e3565b610a4660e0860160c08701612312565b610a57610100870160e08801612312565b604051602001610a6b959493929190612739565b60408051601f198184030181529181528151602092830120600081815280845282812054600185528382208183529094529182209093509080610ad7610ab76080880160608901612216565b610ac760a0890160808a01612216565b6103c960c08a0160a08b016125e3565b915091506000826001600160a01b0316633850c7bd6040518163ffffffff1660e01b815260040160e06040518083038186803b158015610b1657600080fd5b505afa158015610b2a573d6000803e3d6000fd5b505050506040513d601f19601f82011682018060405250810190610b4e9190612549565b5050505050915050866080016020810190610b699190612216565b6001600160a01b0316610b826080890160608a01612216565b6001600160a01b03161015610bca57610ba160e0880160c08901612312565b60020b8160020b12610bc55760405162461bcd60e51b815260040161035a90612995565b610c00565b610bdb610100880160e08901612312565b60020b8160020b1215610c005760405162461bcd60e51b815260040161035a906128f0565b826001600160a01b031663d0c93a7c6040518163ffffffff1660e01b815260040160206040518083038186803b158015610c3957600080fd5b505afa158015610c4d573d6000803e3d6000fd5b505050506040513d601f19601f82011682018060405250810190610c71919061232e565b60020b610c8460e0890160c08a01612312565b610c956101008a0160e08b01612312565b0360020b14610cb65760405162461bcd60e51b815260040161035a9061295e565b600080610ccc6108a660e08b0160c08c01612312565b90506000610ce46108a66101008c0160e08d01612312565b9050610cf660a08b0160808c01612216565b6001600160a01b0316610d0f60808c0160608d01612216565b6001600160a01b03161015610d3457610d2d82828c604001356119b6565b9250610d46565b610d4382828c60400135611a22565b92505b50506001600160a01b038416633c8a7d8d30610d6860e08c0160c08d01612312565b610d796101008d0160e08e01612312565b8560405180604001604052808a8152602001336001600160a01b0316815250604051602001610da891906129cc565b6040516020818303038152906040526040518663ffffffff1660e01b8152600401610dd79594939291906126eb565b6040805180830381600087803b158015610df057600080fd5b505af1158015610e04573d6000803e3d6000fd5b505050506040513d601f19601f82011682018060405250810190610e2891906125fd565b505060008060005b610e3d60208c018c612a99565b90508160ff161015610f68576000610e5860208d018d612a99565b8360ff16818110610e6557fe5b90506020020135905080840193506000610e8d82876001600160801b03168f60400135611a5b565b905083158015610eb4575060008d6040013580610ea657fe5b876001600160801b03168409115b15610ec0576001935083015b80600260008e815260200190815260200160002060008d815260200190815260200160002060008f8060000190610ef79190612a4b565b8760ff16818110610f0457fe5b9050602002016020810190610f199190612216565b6001600160a01b03168152602081019190915260400160002080546fffffffffffffffffffffffffffffffff1981166001600160801b0391821693909301169190911790555050600101610e30565b5089604001358214610f8c5760405162461bcd60e51b815260040161035a90612927565b505084546fffffffffffffffffffffffffffffffff1981166001600160801b03918216929092011617909355505050505050565b60608167ffffffffffffffff81118015610fd957600080fd5b5060405190808252806020026020018201604052801561100d57816020015b6060815260200190600190039081610ff85790505b50905060005b828110156110f9576000803086868581811061102b57fe5b905060200281019061103d9190612aaf565b60405161104b9291906126c7565b600060405180830381855af49150503d8060008114611086576040519150601f19603f3d011682016040523d82523d6000602084013e61108b565b606091505b5091509150816110d7576044815110156110a457600080fd5b600481019050808060200190518101906110be919061234a565b60405162461bcd60e51b815260040161035a9190612838565b808484815181106110e457fe5b60209081029190910101525050600101611013565b5092915050565b7f000000000000000000000000000000000000000000000000000000000000000081565b60009081526020819052604090205490565b60006111448284018461241c565b90506111747f00000000000000000000000000000000000000000000000000000000000000008260000151611b0a565b50841561118f57805151602082015161118f91903388611b33565b83156111ad576111ad81600001516020015182602001513387611b33565b5050505050565b6111bc612197565b506000918252600160209081526040808420928452918152918190208151808301909252546001600160801b0381168252600160801b900460ff1615159181019190915290565b600061120d6121ae565b6040518060600160405280856001600160a01b0316876001600160a01b0316106112375785611239565b865b6001600160a01b03168152602001856001600160a01b0316876001600160a01b0316106112665786611268565b855b6001600160a01b031681526020018462ffffff1681525090506112ab7f000000000000000000000000000000000000000000000000000000000000000082611cc8565b9150935093915050565b6000868152600160209081526040808320838352818420548452909152902080546112ef908790869086906001600160801b0316306113d8565b856001600160a01b0316634f1eb3d883868689611313576001600160801b03611316565b60005b8a61132257600061132b565b6001600160801b035b6040518663ffffffff1660e01b815260040161134b959493929190612775565b6040805180830381600087803b15801561136457600080fd5b505af1158015611378573d6000803e3d6000fd5b505050506040513d601f19601f8201168201806040525081019061139c9190612510565b5050805470ff000000000000000000000000000000001916600160801b1790555050506000928352505060208190526040902080546001019055565b600080866001600160a01b031663a34123a78787876040518463ffffffff1660e01b815260040161140b93929190612812565b6040805180830381600087803b15801561142457600080fd5b505af1158015611438573d6000803e3d6000fd5b505050506040513d601f19601f8201168201806040525081019061145c91906125fd565b6040516309e3d67b60e31b815291935091506001600160a01b03881690634f1eb3d8906114959086908a908a9088908890600401612775565b6040805180830381600087803b1580156114ae57600080fd5b505af11580156114c2573d6000803e3d6000fd5b505050506040513d601f19601f820116820180604052508101906114e69190612510565b505050505050505050565b60008060008360020b12611508578260020b611510565b8260020b6000035b9050620d89e881111561154e576040805162461bcd60e51b81526020600482015260016024820152601560fa1b604482015290519081900360640190fd5b60006001821661156257600160801b611574565b6ffffcb933bd6fad37aa2d162d1a5940015b70ffffffffffffffffffffffffffffffffff16905060028216156115a8576ffff97272373d413259a46990580e213a0260801c5b60048216156115c7576ffff2e50f5f656932ef12357cf3c7fdcc0260801c5b60088216156115e6576fffe5caca7e10e4e61c3624eaa0941cd00260801c5b6010821615611605576fffcb9843d60f6159c9db58835c9266440260801c5b6020821615611624576fff973b41fa98c081472e6896dfb254c00260801c5b6040821615611643576fff2ea16466c96a3843ec78b326b528610260801c5b6080821615611662576ffe5dee046a99a2a811c461f1969c30530260801c5b610100821615611682576ffcbe86c7900a88aedcffc83b479aa3a40260801c5b6102008216156116a2576ff987a7253ac413176f2b074cf7815e540260801c5b6104008216156116c2576ff3392b0822b70005940c7a398e4b70f30260801c5b6108008216156116e2576fe7159475a2c29b7443b29c7fa6e889d90260801c5b611000821615611702576fd097f3bdfd2022b8845ad8f792aa58250260801c5b612000821615611722576fa9f746462d870fdf8a65dc1f90e061e50260801c5b614000821615611742576f70d869a156d2a1b890bb3df62baf32f70260801c5b618000821615611762576f31be135f97d08fd981231505542fcfa60260801c5b62010000821615611783576f09aa508b5b7a84e1c677de54f3e99bc90260801c5b620200008216156117a3576e5d6af8dedb81196699c329225ee6040260801c5b620400008216156117c2576d2216e584f5fa1ea926041bedfe980260801c5b620800008216156117df576b048a170391f7dc42444e8fa20260801c5b60008460020b13156117fa5780600019816117f657fe5b0490505b64010000000081061561180e576001611811565b60005b60ff16602082901c0192505050919050565b6000826001600160a01b0316846001600160a01b03161115611843579192915b611866826001600160801b03168585036001600160a01b0316600160601b611a5b565b90505b9392505050565b6000826001600160a01b0316846001600160a01b03161115611890579192915b836001600160a01b03166118c9606060ff16846001600160801b0316901b8686036001600160a01b0316866001600160a01b0316611a5b565b816118d057fe5b04949350505050565b80156119b1577f00000000000000000000000000000000000000000000000000000000000000006001600160a01b0316836001600160a01b031614156119a657604051632e1a7d4d60e01b81526001600160a01b037f00000000000000000000000000000000000000000000000000000000000000001690632e1a7d4d90611965908490600401612a42565b600060405180830381600087803b15801561197f57600080fd5b505af1158015611993573d6000803e3d6000fd5b505050506119a18282611dc4565b6119b1565b6119b1838383611eb3565b505050565b6000826001600160a01b0316846001600160a01b031611156119d6579192915b60006119f9856001600160a01b0316856001600160a01b0316600160601b611a5b565b9050611a19611a1484838888036001600160a01b0316611a5b565b61200f565b95945050505050565b6000826001600160a01b0316846001600160a01b03161115611a42579192915b611866611a1483600160601b8787036001600160a01b03165b6000808060001985870986860292508281109083900303905080611a915760008411611a8657600080fd5b508290049050611869565b808411611a9d57600080fd5b6000848688096000868103871696879004966002600389028118808a02820302808a02820302808a02820302808a02820302808a02820302808a02909103029181900381900460010186841190950394909402919094039290920491909117919091029150509392505050565b6000611b168383611cc8565b9050336001600160a01b03821614611b2d57600080fd5b92915050565b60007f00000000000000000000000000000000000000000000000000000000000000006001600160a01b0316856001600160a01b0316148015611b795750814791508110155b15611c9b577f00000000000000000000000000000000000000000000000000000000000000006001600160a01b031663d0e30db0826040518263ffffffff1660e01b81526004016000604051808303818588803b158015611bd957600080fd5b505af1158015611bed573d6000803e3d6000fd5b50505050507f00000000000000000000000000000000000000000000000000000000000000006001600160a01b031663a9059cbb84846040518363ffffffff1660e01b815260040180836001600160a01b0316815260200182815260200192505050602060405180830381600087803b158015611c6957600080fd5b505af1158015611c7d573d6000803e3d6000fd5b505050506040513d6020811015611c9357600080fd5b506111ad9050565b6001600160a01b038416301415611cbc57611cb7858484611eb3565b6111ad565b6111ad8585858561202a565b600081602001516001600160a01b031682600001516001600160a01b031610611cf057600080fd5b50805160208083015160409384015184516001600160a01b0394851681850152939091168385015262ffffff166060808401919091528351808403820181526080840185528051908301207fff0000000000000000000000000000000000000000000000000000000000000060a085015294901b6bffffffffffffffffffffffff191660a183015260b58201939093527fafc936cadc66fde42e5aaf0dc783f4745a29300624a875334d8ff311b37e225b60d5808301919091528251808303909101815260f5909101909152805191012090565b604080516000808252602082019092526001600160a01b0384169083906040518082805190602001908083835b60208310611e105780518252601f199092019160209182019101611df1565b6001836020036101000a03801982511681845116808217855250505050505090500191505060006040518083038185875af1925050503d8060008114611e72576040519150601f19603f3d011682016040523d82523d6000602084013e611e77565b606091505b50509050806119b1576040805162461bcd60e51b815260206004820152600360248201526253544560e81b604482015290519081900360640190fd5b604080516001600160a01b038481166024830152604480830185905283518084039091018152606490920183526020820180517bffffffffffffffffffffffffffffffffffffffffffffffffffffffff1663a9059cbb60e01b1781529251825160009485949389169392918291908083835b60208310611f445780518252601f199092019160209182019101611f25565b6001836020036101000a0380198251168184511680821785525050505050509050019150506000604051808303816000865af19150503d8060008114611fa6576040519150601f19603f3d011682016040523d82523d6000602084013e611fab565b606091505b5091509150818015611fd9575080511580611fd95750808060200190516020811015611fd657600080fd5b50515b6111ad576040805162461bcd60e51b815260206004820152600260248201526114d560f21b604482015290519081900360640190fd5b806001600160801b038116811461202557600080fd5b919050565b604080516001600160a01b0385811660248301528481166044830152606480830185905283518084039091018152608490920183526020820180517bffffffffffffffffffffffffffffffffffffffffffffffffffffffff166323b872dd60e01b178152925182516000948594938a169392918291908083835b602083106120c35780518252601f1990920191602091820191016120a4565b6001836020036101000a0380198251168184511680821785525050505050509050019150506000604051808303816000865af19150503d8060008114612125576040519150601f19603f3d011682016040523d82523d6000602084013e61212a565b606091505b5091509150818015612158575080511580612158575080806020019051602081101561215557600080fd5b50515b61218f576040805162461bcd60e51b815260206004820152600360248201526229aa2360e91b604482015290519081900360640190fd5b505050505050565b604080518082019091526000808252602082015290565b604080516060810182526000808252602082018190529181019190915290565b803561202581612b24565b600061010082840312156121eb578081fd5b50919050565b805161ffff8116811461202557600080fd5b803562ffffff8116811461202557600080fd5b600060208284031215612227578081fd5b813561186981612b24565b60008060208385031215612244578081fd5b823567ffffffffffffffff8082111561225b578283fd5b818501915085601f83011261226e578283fd5b81358181111561227c578384fd5b866020808302850101111561228f578384fd5b60209290920196919550909350505050565b6000602082840312156122b2578081fd5b5035919050565b600080604083850312156122cb578182fd5b50508035926020909101359150565b6000806000606084860312156122ee578081fd5b8335925060208401359150604084013561230781612b24565b809150509250925092565b600060208284031215612323578081fd5b813561186981612b3c565b60006020828403121561233f578081fd5b815161186981612b3c565b60006020828403121561235b578081fd5b815167ffffffffffffffff80821115612372578283fd5b818401915084601f830112612385578283fd5b81518181111561239157fe5b604051601f8201601f1916810160200183811182821017156123af57fe5b6040528181528382016020018710156123c6578485fd5b6123d7826020830160208701612af4565b9695505050505050565b6000602082840312156123f2578081fd5b813567ffffffffffffffff811115612408578182fd5b612414848285016121d9565b949350505050565b6000818303608081121561242e578182fd5b6040516040810167ffffffffffffffff828210818311171561244c57fe5b81604052606084121561245d578485fd5b60a083019350818410818511171561247157fe5b50826040528435925061248383612b24565b91825260208401359161249583612b24565b8260608301526124a760408601612203565b608083015281526124ba606085016121ce565b6020820152949350505050565b600060c082840312156121eb578081fd5b600061010082840312156124ea578081fd5b61186983836121d9565b600060208284031215612505578081fd5b813561186981612b4b565b60008060408385031215612522578182fd5b825161252d81612b4b565b602084015190925061253e81612b4b565b809150509250929050565b600080600080600080600060e0888a031215612563578485fd5b875161256e81612b24565b602089015190975061257f81612b3c565b955061258d604089016121f1565b945061259b606089016121f1565b93506125a9608089016121f1565b925060a088015160ff811681146125be578283fd5b60c089015190925080151581146125d3578182fd5b8091505092959891949750929550565b6000602082840312156125f4578081fd5b61186982612203565b6000806040838503121561260f578182fd5b505080516020909101519092909150565b60008060008060608587031215612635578182fd5b8435935060208501359250604085013567ffffffffffffffff8082111561265a578384fd5b818701915087601f83011261266d578384fd5b81358181111561267b578485fd5b88602082850101111561268c578485fd5b95989497505060200194505050565b600081518084526126b3816020860160208601612af4565b601f01601f19169290920160200192915050565b6000828483379101908152919050565b6001600160a01b0391909116815260200190565b60006001600160a01b03871682528560020b60208301528460020b60408301526001600160801b038416606083015260a0608083015261272e60a083018461269b565b979650505050505050565b6001600160a01b03958616815293909416602084015262ffffff919091166040830152600290810b60608301529190910b608082015260a00190565b6001600160a01b03959095168552600293840b60208601529190920b60408401526001600160801b03918216606084015216608082015260a00190565b6000602080830181845280855180835260408601915060408482028701019250838701855b8281101561280557603f198886030184526127f385835161269b565b945092850192908501906001016127d7565b5092979650505050505050565b600293840b81529190920b60208201526001600160801b03909116604082015260600190565b600060208252611869602083018461269b565b60208082526019908201527f504f534954494f4e5f414c52454144595f5245534f4c56454400000000000000604082015260600190565b60208082526015908201527f4e4f545f454e4f554748545f4c49515549444954590000000000000000000000604082015260600190565b60208082526016908201527f4f52444552535f4c454e4754485f4d49534d4154434800000000000000000000604082015260600190565b6020808252600e908201527f52414e47455f544f4f5f48494748000000000000000000000000000000000000604082015260600190565b60208082526010908201527f4241445f494e5055545f414d4f554e5400000000000000000000000000000000604082015260600190565b6020808252600e908201527f4241445f52414e47455f53495a45000000000000000000000000000000000000604082015260600190565b6020808252600d908201527f52414e47455f544f4f5f4c4f5700000000000000000000000000000000000000604082015260600190565b815180516001600160a01b03908116835260208083015182168185015260409283015162ffffff1692840192909252920151909116606082015260800190565b81516001600160801b0316815260209182015115159181019190915260400190565b6001600160801b0391909116815260200190565b90815260200190565b6000808335601e19843603018112612a61578283fd5b83018035915067ffffffffffffffff821115612a7b578283fd5b6020908101925081023603821315612a9257600080fd5b9250929050565b6000808335601e19843603018112612a61578182fd5b6000808335601e19843603018112612ac5578283fd5b83018035915067ffffffffffffffff821115612adf578283fd5b602001915036819003821315612a9257600080fd5b60005b83811015612b0f578181015183820152602001612af7565b83811115612b1e576000848401525b50505050565b6001600160a01b0381168114612b3957600080fd5b50565b8060020b8114612b3957600080fd5b6001600160801b0381168114612b3957600080fdfea164736f6c6343000706000a",
  "linkReferences": {},
  "deployedLinkReferences": {}
}