{
  "_format": "hh-sol-artifact-1",
  "contractName": "UniswapV3RangeOrders01",
  "sourceName": "contracts/UniswapV3RangeOrders01.sol",
  "abi": [
    {
      "inputs": [
        {
          "internalType": "contract INonfungiblePositionManager",
          "name": "_nonfungiblePositionManager",
          "type": "address"
        },
        {
          "internalType": "address",
          "name": "_factory",
          "type": "address"
        },
        {
          "internalType": "address",
          "name": "_WETH9",
          "type": "address"
        },
        {
          "internalType": "uint32",
          "name": "_resolveAuctionTimespan",
          "type": "uint32"
        }
      ],
      "stateMutability": "nonpayable",
      "type": "constructor"
    },
    {
      "inputs": [],
      "name": "WETH9",
      "outputs": [
        {
          "internalType": "address",
          "name": "",
          "type": "address"
        }
      ],
      "stateMutability": "view",
      "type": "function"
    },
    {
      "inputs": [
        {
          "components": [
            {
              "internalType": "address[]",
              "name": "owners",
              "type": "address[]"
            },
            {
              "internalType": "uint256[]",
              "name": "inputAmounts",
              "type": "uint256[]"
            },
            {
              "internalType": "uint256",
              "name": "totalInputAmount",
              "type": "uint256"
            },
            {
              "internalType": "address",
              "name": "tokenIn",
              "type": "address"
            },
            {
              "internalType": "address",
              "name": "tokenOut",
              "type": "address"
            },
            {
              "internalType": "uint24",
              "name": "fee",
              "type": "uint24"
            },
            {
              "internalType": "int24",
              "name": "tickLower",
              "type": "int24"
            },
            {
              "internalType": "int24",
              "name": "tickUpper",
              "type": "int24"
            }
          ],
          "internalType": "struct IUniswapV3RangeOrders.CreateOrdersParams",
          "name": "params",
          "type": "tuple"
        }
      ],
      "name": "createOrders",
      "outputs": [],
      "stateMutability": "payable",
      "type": "function"
    },
    {
      "inputs": [],
      "name": "factory",
      "outputs": [
        {
          "internalType": "address",
          "name": "",
          "type": "address"
        }
      ],
      "stateMutability": "view",
      "type": "function"
    },
    {
      "inputs": [
        {
          "internalType": "bytes32",
          "name": "positionHash",
          "type": "bytes32"
        },
        {
          "internalType": "address",
          "name": "owner",
          "type": "address"
        }
      ],
      "name": "liquidityBalances",
      "outputs": [
        {
          "internalType": "uint128",
          "name": "liquidityBalance",
          "type": "uint128"
        }
      ],
      "stateMutability": "view",
      "type": "function"
    },
    {
      "inputs": [
        {
          "internalType": "bytes[]",
          "name": "data",
          "type": "bytes[]"
        }
      ],
      "name": "multicall",
      "outputs": [
        {
          "internalType": "bytes[]",
          "name": "results",
          "type": "bytes[]"
        }
      ],
      "stateMutability": "payable",
      "type": "function"
    },
    {
      "inputs": [],
      "name": "nonfungiblePositionManager",
      "outputs": [
        {
          "internalType": "contract INonfungiblePositionManager",
          "name": "",
          "type": "address"
        }
      ],
      "stateMutability": "view",
      "type": "function"
    },
    {
      "inputs": [
        {
          "internalType": "bytes32",
          "name": "positionHash",
          "type": "bytes32"
        }
      ],
      "name": "positions",
      "outputs": [
        {
          "components": [
            {
              "internalType": "uint256",
              "name": "tokenId",
              "type": "uint256"
            },
            {
              "internalType": "contract IUniswapV3Pool",
              "name": "pool",
              "type": "address"
            },
            {
              "internalType": "uint128",
              "name": "tokenInFees",
              "type": "uint128"
            },
            {
              "internalType": "uint128",
              "name": "tokenOutFees",
              "type": "uint128"
            },
            {
              "internalType": "uint32",
              "name": "cachedSecondsOutside",
              "type": "uint32"
            }
          ],
          "internalType": "struct IUniswapV3RangeOrders.Position",
          "name": "position",
          "type": "tuple"
        }
      ],
      "stateMutability": "view",
      "type": "function"
    },
    {
      "inputs": [
        {
          "internalType": "address",
          "name": "token",
          "type": "address"
        },
        {
          "internalType": "address",
          "name": "payer",
          "type": "address"
        },
        {
          "internalType": "uint256",
          "name": "value",
          "type": "uint256"
        }
      ],
      "name": "pullPayment",
      "outputs": [],
      "stateMutability": "nonpayable",
      "type": "function"
    },
    {
      "inputs": [],
      "name": "resolveAuctionTimespan",
      "outputs": [
        {
          "internalType": "uint32",
          "name": "",
          "type": "uint32"
        }
      ],
      "stateMutability": "view",
      "type": "function"
    },
    {
      "inputs": [
        {
          "components": [
            {
              "internalType": "address[]",
              "name": "owners",
              "type": "address[]"
            },
            {
              "internalType": "address",
              "name": "tokenIn",
              "type": "address"
            },
            {
              "internalType": "address",
              "name": "tokenOut",
              "type": "address"
            },
            {
              "internalType": "uint24",
              "name": "fee",
              "type": "uint24"
            },
            {
              "internalType": "int24",
              "name": "tickLower",
              "type": "int24"
            },
            {
              "internalType": "int24",
              "name": "tickUpper",
              "type": "int24"
            },
            {
              "internalType": "uint128",
              "name": "resolveLiquidity",
              "type": "uint128"
            },
            {
              "internalType": "address",
              "name": "resolver",
              "type": "address"
            }
          ],
          "internalType": "struct IUniswapV3RangeOrders.ResolveOrdersParams",
          "name": "params",
          "type": "tuple"
        }
      ],
      "name": "resolveOrders",
      "outputs": [],
      "stateMutability": "nonpayable",
      "type": "function"
    },
    {
      "inputs": [
        {
          "components": [
            {
              "internalType": "bytes32",
              "name": "positionHash",
              "type": "bytes32"
            },
            {
              "internalType": "address",
              "name": "tokenIn",
              "type": "address"
            },
            {
              "internalType": "address",
              "name": "tokenOut",
              "type": "address"
            },
            {
              "internalType": "uint256",
              "name": "liquidity",
              "type": "uint256"
            }
          ],
          "internalType": "struct IUniswapV3RangeOrders.WithdrawParams",
          "name": "params",
          "type": "tuple"
        }
      ],
      "name": "withdrawOrder",
      "outputs": [],
      "stateMutability": "nonpayable",
      "type": "function"
    },
    {
      "stateMutability": "payable",
      "type": "receive"
    }
  ],
  "bytecode": "0x6101006040523480156200001257600080fd5b506040516200360b3803806200360b83398101604081905262000035916200006d565b6001600160601b0319606094851b811660805292841b831660a052921b1660c0526001600160e01b031960e091821b169052620000f4565b6000806000806080858703121562000083578384fd5b84516200009081620000db565b6020860151909450620000a381620000db565b6040860151909350620000b681620000db565b606086015190925063ffffffff81168114620000d0578182fd5b939692955090935050565b6001600160a01b0381168114620000f157600080fd5b50565b60805160601c60a05160601c60c05160601c60e05160e01c61346d6200019e60003980610c7952806111315280611166528061134f528061138b52508060d05280610437528061094b528061199252806119cd528061256652806125b55250806105eb5280610e015250806109a95280610ddd5280610edd52806116ad528061174352806118445280611b6a5280611de65280611e7b5280611fbc5280612422525061346d6000f3fe6080604052600436106100c05760003560e01c8063a61e5c4d11610074578063c45a01551161004e578063c45a01551461022c578063d05114b814610241578063d35f21651461026157610118565b8063a61e5c4d146101d5578063ac9650d8146101f7578063b44a27221461021757610118565b80634fb5bf7f116100a55780634fb5bf7f14610168578063514ea4bf1461019557806395f7b891146101c257610118565b80633dfa595f1461011d5780634aa4a4fc1461013d57610118565b3661011857336001600160a01b037f000000000000000000000000000000000000000000000000000000000000000016146101165760405162461bcd60e51b815260040161010d906130e4565b60405180910390fd5b005b600080fd5b34801561012957600080fd5b50610116610138366004612b4b565b610281565b34801561014957600080fd5b50610152610435565b60405161015f9190612e0b565b60405180910390f35b34801561017457600080fd5b50610188610183366004612a12565b610459565b60405161015f9190613322565b3480156101a157600080fd5b506101b56101b03660046129fa565b610489565b60405161015f91906132ca565b6101166101d0366004612b10565b61051a565b3480156101e157600080fd5b506101ea610c77565b60405161015f919061333f565b61020a610205366004612971565b610c9b565b60405161015f9190612e74565b34801561022357600080fd5b50610152610ddb565b34801561023857600080fd5b50610152610dff565b34801561024d57600080fd5b5061011661025c366004612931565b610e23565b34801561026d57600080fd5b5061011661027c366004612b10565b610e34565b803560009081526001602090815260408083203384529091529020546001600160801b031660608201358110156102ca5760405162461bcd60e51b815260040161010d90612f2c565b81356000818152602081815260408083209383928392839261030d9290916102f791908b01908b01612915565b61030760608b0160408c01612915565b89611625565b6002890180546fffffffffffffffffffffffffffffffff1981166001600160801b039182168501821617808216600160801b91829004831685019092160217905592965090945092509050600061036a6060890160408a01612915565b6001600160a01b031661038360408a0160208b01612915565b6001600160a01b0316106103a6576103a16060890160408a01612915565b6103b6565b6103b66040890160208a01612915565b905060006103ca60608a0160408b01612915565b6001600160a01b03166103e360408b0160208c01612915565b6001600160a01b0316106104065761040160408a0160208b01612915565b610416565b61041660608a0160408b01612915565b905061042a87600001543384848a8a611990565b505050505050505050565b7f000000000000000000000000000000000000000000000000000000000000000081565b60009182526001602090815260408084206001600160a01b0390931684529190529020546001600160801b031690565b610491612881565b5060008181526020818152604091829020825160a081018452815480825260018301546001600160a01b03169382019390935260028201546001600160801b0380821695830195909552600160801b900490931660608401526003015463ffffffff1660808301526105155760405162461bcd60e51b815260040161010d90612fd1565b919050565b6105276020820182613350565b90506105338280613350565b9050146105525760405162461bcd60e51b815260040161010d90612f63565b60006105646080830160608401612915565b61057460a0840160808501612915565b61058460c0850160a08601612c3f565b61059460e0860160c08701612a41565b6105a5610100870160e08801612a41565b6040516020016105b9959493929190612e1f565b60408051601f1981840301815291815281516020928301206000818152928390529120805491925090610743576107087f000000000000000000000000000000000000000000000000000000000000000060405180606001604052808660800160208101906106289190612915565b6001600160a01b03166106416080890160608a01612915565b6001600160a01b0316106106645761065f60a0880160808901612915565b610674565b6106746080880160608901612915565b6001600160a01b0316815260200161069260a0880160808901612915565b6001600160a01b03166106ab6080890160608a01612915565b6001600160a01b0316106106ce576106c96080880160608901612915565b6106de565b6106de60a0880160808901612915565b6001600160a01b031681526020016106fc60c0880160a08901612c3f565b62ffffff169052611a53565b6001820180547fffffffffffffffffffffffff0000000000000000000000000000000000000000166001600160a01b03929092169190911790555b600181015460408051633850c7bd60e01b815290516000926001600160a01b031691633850c7bd9160048083019260e0929190829003018186803b15801561078a57600080fd5b505afa15801561079e573d6000803e3d6000fd5b505050506040513d601f19601f820116820180604052508101906107c29190612bae565b50505050509150508360800160208101906107dd9190612915565b6001600160a01b03166107f66080860160608701612915565b6001600160a01b0316101561083e5761081560e0850160c08601612a41565b60020b8160020b126108395760405162461bcd60e51b815260040161010d9061311b565b610874565b61084f610100850160e08601612a41565b60020b8160020b12156108745760405162461bcd60e51b815260040161010d90613008565b8160010160009054906101000a90046001600160a01b03166001600160a01b031663d0c93a7c6040518163ffffffff1660e01b815260040160206040518083038186803b1580156108c457600080fd5b505afa1580156108d8573d6000803e3d6000fd5b505050506040513d601f19601f820116820180604052508101906108fc9190612a5d565b60020b61090f60e0860160c08701612a41565b610920610100870160e08801612a41565b0360020b146109415760405162461bcd60e51b815260040161010d90613076565b6001600160a01b037f00000000000000000000000000000000000000000000000000000000000000001661097b6080860160608701612915565b6001600160a01b031614610a3e576109996080850160608601612915565b6001600160a01b031663095ea7b37f000000000000000000000000000000000000000000000000000000000000000086604001356040518363ffffffff1660e01b81526004016109ea929190612e5b565b602060405180830381600087803b158015610a0457600080fd5b505af1158015610a18573d6000803e3d6000fd5b505050506040513d601f19601f82011682018060405250810190610a3c91906129e0565b505b8154600090610aad57610aa684610a5b6080880160608901612915565b610a6b60a0890160808a01612915565b610a7b60c08a0160a08b01612c3f565b610a8b60e08b0160c08c01612a41565b610a9c6101008c0160e08d01612a41565b8b60400135611b4f565b9050610b29565b600080610ade86610ac460808a0160608b01612915565b610ad460a08b0160808c01612915565b8a60400135611d69565b600288018054600160801b6001600160801b0380831690950185166fffffffffffffffffffffffffffffffff1990921691909117818104851690930184160291909216179055925050505b60008060005b610b3c6020890189613350565b90508160ff161015610c4a576000610b5760208a018a613350565b8360ff16818110610b6457fe5b90506020020135905080840193506000610b8c82876001600160801b03168c604001356120b3565b905083158015610bb3575060008a6040013580610ba557fe5b876001600160801b03168409115b15610bbf576001935083015b60008981526001602052604081208291610bd98d80613350565b8760ff16818110610be657fe5b9050602002016020810190610bfb9190612915565b6001600160a01b03168152602081019190915260400160002080546fffffffffffffffffffffffffffffffff1981166001600160801b0391821693909301169190911790555050600101610b2f565b5086604001358214610c6e5760405162461bcd60e51b815260040161010d9061303f565b50505050505050565b7f000000000000000000000000000000000000000000000000000000000000000081565b60608167ffffffffffffffff81118015610cb457600080fd5b50604051908082528060200260200182016040528015610ce857816020015b6060815260200190600190039081610cd35790505b50905060005b82811015610dd45760008030868685818110610d0657fe5b9050602002810190610d18919061339e565b604051610d26929190612dfb565b600060405180830381855af49150503d8060008114610d61576040519150601f19603f3d011682016040523d82523d6000602084013e610d66565b606091505b509150915081610db257604481511015610d7f57600080fd5b60048101905080806020019051810190610d999190612a79565b60405162461bcd60e51b815260040161010d9190612ee2565b80848481518110610dbf57fe5b60209081029190910101525050600101610cee565b5092915050565b7f000000000000000000000000000000000000000000000000000000000000000081565b7f000000000000000000000000000000000000000000000000000000000000000081565b610e2f83833084612163565b505050565b600080610e476040840160208501612915565b610e576060850160408601612915565b610e676080860160608701612c3f565b610e7760a0870160808801612a41565b610e8760c0880160a08901612a41565b604051602001610e9b959493929190612e1f565b60408051601f198184030181528282528051602091820120600081815291829052918120805463133f757160e31b855292945092909182916001600160a01b037f000000000000000000000000000000000000000000000000000000000000000016916399fbab8891610f119190600401613336565b6101806040518083038186803b158015610f2a57600080fd5b505afa158015610f3e573d6000803e3d6000fd5b505050506040513d601f19601f82011682018060405250810190610f629190612cd3565b505050509750505050509350505060008360010160009054906101000a90046001600160a01b03166001600160a01b0316633850c7bd6040518163ffffffff1660e01b815260040160e06040518083038186803b158015610fc257600080fd5b505afa158015610fd6573d6000803e3d6000fd5b505050506040513d601f19601f82011682018060405250810190610ffa9190612bae565b5050505050915050826001600160a01b031687602001602081019061101f9190612915565b6001600160a01b031614156110685761103e60c0880160a08901612a41565b60020b8160020b12156110635760405162461bcd60e51b815260040161010d90613008565b61109c565b61107860a0880160808901612a41565b60020b8160020b1261109c5760405162461bcd60e51b815260040161010d9061311b565b506003830154600184015460009163ffffffff166000190190611123906001600160a01b03166110d260608b0160408c01612915565b6001600160a01b03166110eb60408c0160208d01612915565b6001600160a01b03161061110e5761110960a08b0160808c01612a41565b61111e565b61111e60c08b0160a08c01612a41565b6122c8565b61112b612419565b030390507f000000000000000000000000000000000000000000000000000000000000000063ffffffff168163ffffffff16111561118657507f00000000000000000000000000000000000000000000000000000000000000005b60008060008060006111d08a8d60200160208101906111a59190612915565b8e60400160208101906111b89190612915565b8f60c00160208101906111cb9190612b5c565b611625565b90919250809350819450829750505050611231828a60020160009054906101000a90046001600160801b0316016001600160801b03168d60c00160208101906112199190612b5c565b6001600160801b0316896001600160801b03166120b3565b9350611286828a60020160009054906101000a90046001600160801b0316016001600160801b03168d60c001602081019061126c9190612b5c565b89036001600160801b0316896001600160801b03166120b3565b8960020160006101000a8154816001600160801b0302191690836001600160801b031602179055506112e7818a60020160109054906101000a90046001600160801b0316016001600160801b03168d60c00160208101906112199190612b5c565b9250611322818a60020160109054906101000a90046001600160801b0316016001600160801b03168d60c001602081019061126c9190612b5c565b60028a0180546001600160801b03928316600160801b0292169190911790555061137a90508363ffffffff7f0000000000000000000000000000000000000000000000000000000000000000878103821691166120b3565b985060006113b5848663ffffffff167f000000000000000000000000000000000000000000000000000000000000000063ffffffff166120b3565b820190506114558860000154308d60400160208101906113d59190612915565b6001600160a01b03168e60200160208101906113f19190612915565b6001600160a01b03161061140757838d01611409565b855b8e604001602081019061141c9190612915565b6001600160a01b03168f60200160208101906114389190612915565b6001600160a01b03161061144c5786611450565b848e015b61241d565b61148861146860608d0160408e01612915565b6114796101008e0160e08f01612915565b836001600160801b031661255e565b6114bb61149b60408d0160208e01612915565b6114ac6101008e0160e08f01612915565b856001600160801b031661255e565b505050505050505060008060005b6114d38680613350565b90508160ff1610156115dd5760006114eb8780613350565b8360ff168181106114f857fe5b905060200201602081019061150d9190612915565b60008681526001602090815260408083206001600160a01b03851684529091528120549192506001600160801b03918216916115649089168361155660e08d0160c08e01612b5c565b6001600160801b03166120b3565b9050841580156115a85750600061158160e08b0160c08c01612b5c565b6001600160801b03168061159157fe5b836001600160801b03168a6001600160801b031609115b156115b4576001945084015b6115ce6115c760608b0160408c01612915565b848361255e565b509390930192506001016114c9565b506115ee60e0860160c08701612b5c565b6001600160801b0316826001600160801b03161461161e5760405162461bcd60e51b815260040161010d906130ad565b5050505050565b600084815260208181526040808320815160a081018352815480825260018301546001600160a01b039081169583019590955260028301546001600160801b0380821684870152600160801b90910416606083015260039092015463ffffffff166080820152915163133f757160e31b815284938493849384938493849384939092849283927f0000000000000000000000000000000000000000000000000000000000000000909116916399fbab88916116e291600401613336565b6101806040518083038186803b1580156116fb57600080fd5b505afa15801561170f573d6000803e3d6000fd5b505050506040513d601f19601f820116820180604052508101906117339190612cd3565b9b509b50505050505050505050507f00000000000000000000000000000000000000000000000000000000000000006001600160a01b0316630c49ccbe6040518060a00160405280866000015181526020018f6001600160801b0316815260200160008152602001600081526020016117aa612419565b63ffffffff168152506040518263ffffffff1660e01b81526004016117cf9190613195565b6040805180830381600087803b1580156117e857600080fd5b505af11580156117fc573d6000803e3d6000fd5b505050506040513d601f19601f820116820180604052508101906118209190612cb0565b845160405163133f757160e31b815292995090975060009182916001600160a01b037f000000000000000000000000000000000000000000000000000000000000000016916399fbab889161187791600401613336565b6101806040518083038186803b15801561189057600080fd5b505afa1580156118a4573d6000803e3d6000fd5b505050506040513d601f19601f820116820180604052508101906118c89190612cd3565b9b509b505050505050505050505083820396508281039550505050505060008483039050600084830390508b6001600160a01b03168d6001600160a01b0316106119125784611914565b855b99508b6001600160a01b03168d6001600160a01b0316106119355785611937565b845b98508b6001600160a01b03168d6001600160a01b031610611958578061195a565b815b97508b6001600160a01b03168d6001600160a01b03161061197b578161197d565b805b9650505050505050945094509450949050565b7f00000000000000000000000000000000000000000000000000000000000000006001600160a01b0316846001600160a01b03161480611a0157507f00000000000000000000000000000000000000000000000000000000000000006001600160a01b0316836001600160a01b0316145b15611a3f57611a128630848461241d565b611a268486846001600160801b031661255e565b611a3a8386836001600160801b031661255e565b611a4b565b611a4b8686848461241d565b505050505050565b600081602001516001600160a01b031682600001516001600160a01b031610611a7b57600080fd5b50805160208083015160409384015184516001600160a01b0394851681850152939091168385015262ffffff166060808401919091528351808403820181526080840185528051908301207fff0000000000000000000000000000000000000000000000000000000000000060a085015294901b6bffffffffffffffffffffffff191660a183015260b58201939093527fafc936cadc66fde42e5aaf0dc783f4745a29300624a875334d8ff311b37e225b60d5808301919091528251808303909101815260f5909101909152805191012090565b6000806000808a8152602001908152602001600020905060007f00000000000000000000000000000000000000000000000000000000000000006001600160a01b03166388316456476040518061016001604052808c6001600160a01b03168e6001600160a01b031610611bc3578c611bc5565b8d5b6001600160a01b031681526020018c6001600160a01b03168e6001600160a01b031610611bf2578d611bf4565b8c5b6001600160a01b031681526020018b62ffffff1681526020018a60020b81526020018960020b81526020018c6001600160a01b03168e6001600160a01b031610611c3f576000611c41565b885b81526020018c6001600160a01b03168e6001600160a01b031610611c655788611c68565b60005b81526000602082018190526040820152306060820152608001611c89612419565b63ffffffff168152506040518363ffffffff1660e01b8152600401611cae919061321c565b6080604051808303818588803b158015611cc757600080fd5b505af1158015611cdb573d6000803e3d6000fd5b50505050506040513d601f19601f82011682018060405250810190611d009190612c73565b50508184556001840154909450909150611d37906001600160a01b03908116908a8116908c1610611d31578761111e565b866122c8565b6001018260030160006101000a81548163ffffffff021916908363ffffffff1602179055505050979650505050505050565b600084815260208181526040808320815160a081018352815480825260018301546001600160a01b039081169583019590955260028301546001600160801b0380821684870152600160801b90910416606083015260039092015463ffffffff166080820152915163133f757160e31b81528493849392849283927f000000000000000000000000000000000000000000000000000000000000000016916399fbab8891611e1a9190600401613336565b6101806040518083038186803b158015611e3357600080fd5b505afa158015611e47573d6000803e3d6000fd5b505050506040513d601f19601f82011682018060405250810190611e6b9190612cd3565b9b509b50505050505050505050507f00000000000000000000000000000000000000000000000000000000000000006001600160a01b031663219f5d17476040518060c00160405280876000015181526020018c6001600160a01b03168e6001600160a01b031610611ede576000611ee0565b8b5b81526020018c6001600160a01b03168e6001600160a01b031610611f04578b611f07565b60005b81526020016000815260200160008152602001611f22612419565b63ffffffff168152506040518363ffffffff1660e01b8152600401611f4791906131d8565b6060604051808303818588803b158015611f6057600080fd5b505af1158015611f74573d6000803e3d6000fd5b50505050506040513d601f19601f82011682018060405250810190611f999190612b78565b5050835160405163133f757160e31b815291975060009182916001600160a01b037f000000000000000000000000000000000000000000000000000000000000000016916399fbab8891611fef91600401613336565b6101806040518083038186803b15801561200857600080fd5b505afa15801561201c573d6000803e3d6000fd5b505050506040513d601f19601f820116820180604052508101906120409190612cd3565b9b509b505050505050505050505060008483039050600084830390508b6001600160a01b03168d6001600160a01b03161061207b578061207d565b815b98508b6001600160a01b03168d6001600160a01b03161061209e57816120a0565b805b9750505050505050509450945094915050565b60008080600019858709868602925082811090839003039050806120e957600084116120de57600080fd5b50829004905061215c565b8084116120f557600080fd5b6000848688096000868103871696879004966002600389028118808a02820302808a02820302808a02820302808a02820302808a02820302808a02909103029181900381900460010186841190950394909402919094039290920491909117919091029150505b9392505050565b604080516001600160a01b0385811660248301528481166044830152606480830185905283518084039091018152608490920183526020820180517bffffffffffffffffffffffffffffffffffffffffffffffffffffffff166323b872dd60e01b178152925182516000948594938a169392918291908083835b602083106121fc5780518252601f1990920191602091820191016121dd565b6001836020036101000a0380198251168184511680821785525050505050509050019150506000604051808303816000865af19150503d806000811461225e576040519150601f19603f3d011682016040523d82523d6000602084013e612263565b606091505b5091509150818015612291575080511580612291575080806020019051602081101561228e57600080fd5b50515b611a4b576040805162461bcd60e51b815260206004820152600360248201526229aa2360e91b604482015290519081900360640190fd5b600080836001600160a01b031663d0c93a7c6040518163ffffffff1660e01b815260040160206040518083038186803b15801561230457600080fd5b505afa158015612318573d6000803e3d6000fd5b505050506040513d601f19601f8201168201806040525081019061233c9190612a5d565b90508060020b8360020b8161234d57fe5b0760020b1561235b57600080fd5b60008160020b8460020b8161236c57fe5b059050600281900b600381901d906000906008900760200290506000876001600160a01b031663a757e4fd846040518263ffffffff1660e01b81526004016123b49190612ed4565b60206040518083038186803b1580156123cc57600080fd5b505afa1580156123e0573d6000803e3d6000fd5b505050506040513d601f19601f820116820180604052508101906124049190612c5b565b60ff9092169190911c94505050505092915050565b4290565b6000807f00000000000000000000000000000000000000000000000000000000000000006001600160a01b031663fc6f78656040518060800160405280898152602001886001600160a01b03168152602001876001600160801b03168152602001866001600160801b03168152506040518263ffffffff1660e01b81526004016124a79190613152565b6040805180830381600087803b1580156124c057600080fd5b505af11580156124d4573d6000803e3d6000fd5b505050506040513d601f19601f820116820180604052508101906124f89190612cb0565b91509150816001600160801b0316846001600160801b03161461252d5760405162461bcd60e51b815260040161010d90612f9a565b806001600160801b0316836001600160801b031614611a4b5760405162461bcd60e51b815260040161010d90612ef5565b8015610e2f577f00000000000000000000000000000000000000000000000000000000000000006001600160a01b0316836001600160a01b0316141561262b57604051632e1a7d4d60e01b81526001600160a01b037f00000000000000000000000000000000000000000000000000000000000000001690632e1a7d4d906125ea908490600401613336565b600060405180830381600087803b15801561260457600080fd5b505af1158015612618573d6000803e3d6000fd5b505050506126268282612636565b610e2f565b610e2f838383612725565b604080516000808252602082019092526001600160a01b0384169083906040518082805190602001908083835b602083106126825780518252601f199092019160209182019101612663565b6001836020036101000a03801982511681845116808217855250505050505090500191505060006040518083038185875af1925050503d80600081146126e4576040519150601f19603f3d011682016040523d82523d6000602084013e6126e9565b606091505b5050905080610e2f576040805162461bcd60e51b815260206004820152600360248201526253544560e81b604482015290519081900360640190fd5b604080516001600160a01b038481166024830152604480830185905283518084039091018152606490920183526020820180517bffffffffffffffffffffffffffffffffffffffffffffffffffffffff1663a9059cbb60e01b1781529251825160009485949389169392918291908083835b602083106127b65780518252601f199092019160209182019101612797565b6001836020036101000a0380198251168184511680821785525050505050509050019150506000604051808303816000865af19150503d8060008114612818576040519150601f19603f3d011682016040523d82523d6000602084013e61281d565b606091505b509150915081801561284b57508051158061284b575080806020019051602081101561284857600080fd5b50515b61161e576040805162461bcd60e51b815260206004820152600260248201526114d560f21b604482015290519081900360640190fd5b6040805160a08101825260008082526020820181905291810182905260608101829052608081019190915290565b805161051581613413565b8051801515811461051557600080fd5b80516105158161342b565b600061010082840312156128e7578081fd5b50919050565b80516105158161343a565b805161ffff8116811461051557600080fd5b80516105158161344f565b600060208284031215612926578081fd5b813561215c81613413565b600080600060608486031215612945578182fd5b833561295081613413565b9250602084013561296081613413565b929592945050506040919091013590565b60008060208385031215612983578182fd5b823567ffffffffffffffff8082111561299a578384fd5b818501915085601f8301126129ad578384fd5b8135818111156129bb578485fd5b86602080830285010111156129ce578485fd5b60209290920196919550909350505050565b6000602082840312156129f1578081fd5b61215c826128ba565b600060208284031215612a0b578081fd5b5035919050565b60008060408385031215612a24578182fd5b823591506020830135612a3681613413565b809150509250929050565b600060208284031215612a52578081fd5b813561215c8161342b565b600060208284031215612a6e578081fd5b815161215c8161342b565b600060208284031215612a8a578081fd5b815167ffffffffffffffff80821115612aa1578283fd5b818401915084601f830112612ab4578283fd5b815181811115612ac057fe5b604051601f8201601f191681016020018381118282101715612ade57fe5b604052818152838201602001871015612af5578485fd5b612b068260208301602087016133e3565b9695505050505050565b600060208284031215612b21578081fd5b813567ffffffffffffffff811115612b37578182fd5b612b43848285016128d5565b949350505050565b6000608082840312156128e7578081fd5b600060208284031215612b6d578081fd5b813561215c8161343a565b600080600060608486031215612b8c578081fd5b8351612b978161343a565b602085015160409095015190969495509392505050565b600080600080600080600060e0888a031215612bc8578485fd5b8751612bd381613413565b6020890151909750612be48161342b565b9550612bf2604089016128f8565b9450612c00606089016128f8565b9350612c0e608089016128f8565b925060a088015160ff81168114612c23578283fd5b9150612c3160c089016128ba565b905092959891949750929550565b600060208284031215612c50578081fd5b813561215c8161344f565b600060208284031215612c6c578081fd5b5051919050565b60008060008060808587031215612c88578182fd5b845193506020850151612c9a8161343a565b6040860151606090960151949790965092505050565b60008060408385031215612cc2578182fd5b505080516020909101519092909150565b6000806000806000806000806000806000806101808d8f031215612cf5578586fd5b8c516bffffffffffffffffffffffff81168114612d10578687fd5b9b50612d1e60208e016128af565b9a50612d2c60408e016128af565b9950612d3a60608e016128af565b9850612d4860808e0161290a565b9750612d5660a08e016128ca565b9650612d6460c08e016128ca565b9550612d7260e08e016128ed565b94506101008d015193506101208d01519250612d916101408e016128ed565b9150612da06101608e016128ed565b90509295989b509295989b509295989b565b6001600160a01b03169052565b60008151808452612dd78160208601602086016133e3565b601f01601f19169290920160200192915050565b60020b9052565b62ffffff169052565b6000828483379101908152919050565b6001600160a01b0391909116815260200190565b6001600160a01b03958616815293909416602084015262ffffff919091166040830152600290810b60608301529190910b608082015260a00190565b6001600160a01b03929092168252602082015260400190565b6000602080830181845280855180835260408601915060408482028701019250838701855b82811015612ec757603f19888603018452612eb5858351612dbf565b94509285019290850190600101612e99565b5092979650505050505050565b60029190910b815260200190565b60006020825261215c6020830184612dbf565b60208082526017908201527f57524f4e475f414d4f554e54315f434f4c4c4543544544000000000000000000604082015260600190565b60208082526015908201527f4e4f545f454e4f554748545f4c49515549444954590000000000000000000000604082015260600190565b60208082526016908201527f4f52444552535f4c454e4754485f4d49534d4154434800000000000000000000604082015260600190565b60208082526017908201527f57524f4e475f414d4f554e54305f434f4c4c4543544544000000000000000000604082015260600190565b60208082526015908201527f494e56414c49445f504f534954494f4e5f484153480000000000000000000000604082015260600190565b6020808252600e908201527f52414e47455f544f4f5f48494748000000000000000000000000000000000000604082015260600190565b60208082526010908201527f4241445f494e5055545f414d4f554e5400000000000000000000000000000000604082015260600190565b6020808252600e908201527f4241445f52414e47455f53495a45000000000000000000000000000000000000604082015260600190565b60208082526015908201527f4241445f5245534f4c56455f4c49515549444954590000000000000000000000604082015260600190565b60208082526009908201527f4e4f545f57455448390000000000000000000000000000000000000000000000604082015260600190565b6020808252600d908201527f52414e47455f544f4f5f4c4f5700000000000000000000000000000000000000604082015260600190565b815181526020808301516001600160a01b0316908201526040808301516001600160801b0390811691830191909152606092830151169181019190915260800190565b600060a082019050825182526001600160801b03602084015116602083015260408301516040830152606083015160608301526080830151608083015292915050565b600060c082019050825182526020830151602083015260408301516040830152606083015160608301526080830151608083015260a083015160a083015292915050565b600061016082019050613230828451612db2565b60208301516132426020840182612db2565b5060408301516132556040840182612df2565b5060608301516132686060840182612deb565b50608083015161327b6080840182612deb565b5060a083015160a083015260c083015160c083015260e083015160e0830152610100808401518184015250610120808401516132b982850182612db2565b505061014092830151919092015290565b600060a082019050825182526001600160a01b03602084015116602083015260408301516001600160801b038082166040850152806060860151166060850152505063ffffffff608084015116608083015292915050565b6001600160801b0391909116815260200190565b90815260200190565b63ffffffff91909116815260200190565b6000808335601e19843603018112613366578283fd5b83018035915067ffffffffffffffff821115613380578283fd5b602090810192508102360382131561339757600080fd5b9250929050565b6000808335601e198436030181126133b4578283fd5b83018035915067ffffffffffffffff8211156133ce578283fd5b60200191503681900382131561339757600080fd5b60005b838110156133fe5781810151838201526020016133e6565b8381111561340d576000848401525b50505050565b6001600160a01b038116811461342857600080fd5b50565b8060020b811461342857600080fd5b6001600160801b038116811461342857600080fd5b62ffffff8116811461342857600080fdfea164736f6c6343000706000a",
  "linkReferences": {},
  "deployedLinkReferences": {}
}