{
  "_format": "hh-sol-artifact-1",
  "contractName": "RangeOrderPositionManager",
  "sourceName": "contracts/RangeOrderPositionManager.sol",
  "abi": [
    {
      "inputs": [
        {
          "internalType": "address",
          "name": "_factory",
          "type": "address"
        }
      ],
      "stateMutability": "nonpayable",
      "type": "constructor"
    },
    {
      "inputs": [
        {
          "components": [
            {
              "internalType": "uint256",
              "name": "positionIndex",
              "type": "uint256"
            },
            {
              "internalType": "address",
              "name": "tokenIn",
              "type": "address"
            },
            {
              "internalType": "address",
              "name": "tokenOut",
              "type": "address"
            },
            {
              "internalType": "uint24",
              "name": "fee",
              "type": "uint24"
            },
            {
              "internalType": "int24",
              "name": "tickLower",
              "type": "int24"
            },
            {
              "internalType": "int24",
              "name": "tickUpper",
              "type": "int24"
            },
            {
              "internalType": "uint128",
              "name": "liquidity",
              "type": "uint128"
            },
            {
              "internalType": "address",
              "name": "recipient",
              "type": "address"
            }
          ],
          "internalType": "struct IRangeOrderPositionManager.DecreaseLiquidityParams",
          "name": "params",
          "type": "tuple"
        }
      ],
      "name": "decreaseLiquidity",
      "outputs": [],
      "stateMutability": "nonpayable",
      "type": "function"
    },
    {
      "inputs": [],
      "name": "factory",
      "outputs": [
        {
          "internalType": "address",
          "name": "",
          "type": "address"
        }
      ],
      "stateMutability": "view",
      "type": "function"
    },
    {
      "inputs": [
        {
          "components": [
            {
              "internalType": "address",
              "name": "owner",
              "type": "address"
            },
            {
              "internalType": "uint256",
              "name": "inputAmount",
              "type": "uint256"
            },
            {
              "internalType": "address",
              "name": "tokenIn",
              "type": "address"
            },
            {
              "internalType": "address",
              "name": "tokenOut",
              "type": "address"
            },
            {
              "internalType": "uint24",
              "name": "fee",
              "type": "uint24"
            },
            {
              "internalType": "int24",
              "name": "tickLower",
              "type": "int24"
            },
            {
              "internalType": "int24",
              "name": "tickUpper",
              "type": "int24"
            }
          ],
          "internalType": "struct IRangeOrderPositionManager.IncreaseLiquidityParams",
          "name": "params",
          "type": "tuple"
        }
      ],
      "name": "increaseLiquidity",
      "outputs": [],
      "stateMutability": "nonpayable",
      "type": "function"
    },
    {
      "inputs": [
        {
          "components": [
            {
              "internalType": "address[]",
              "name": "owners",
              "type": "address[]"
            },
            {
              "internalType": "uint256[]",
              "name": "inputAmounts",
              "type": "uint256[]"
            },
            {
              "internalType": "uint256",
              "name": "totalInputAmount",
              "type": "uint256"
            },
            {
              "internalType": "address",
              "name": "tokenIn",
              "type": "address"
            },
            {
              "internalType": "address",
              "name": "tokenOut",
              "type": "address"
            },
            {
              "internalType": "uint24",
              "name": "fee",
              "type": "uint24"
            },
            {
              "internalType": "int24",
              "name": "tickLower",
              "type": "int24"
            },
            {
              "internalType": "int24",
              "name": "tickUpper",
              "type": "int24"
            }
          ],
          "internalType": "struct IRangeOrderPositionManager.IncreaseLiquidityMultiParams",
          "name": "params",
          "type": "tuple"
        }
      ],
      "name": "increaseLiquidityMulti",
      "outputs": [],
      "stateMutability": "nonpayable",
      "type": "function"
    },
    {
      "inputs": [
        {
          "components": [
            {
              "internalType": "address",
              "name": "tokenIn",
              "type": "address"
            },
            {
              "internalType": "address",
              "name": "tokenOut",
              "type": "address"
            },
            {
              "internalType": "uint24",
              "name": "fee",
              "type": "uint24"
            },
            {
              "internalType": "int24",
              "name": "tickLower",
              "type": "int24"
            },
            {
              "internalType": "int24",
              "name": "tickUpper",
              "type": "int24"
            },
            {
              "internalType": "address",
              "name": "recipient",
              "type": "address"
            }
          ],
          "internalType": "struct IRangeOrderPositionManager.LiquidateParams",
          "name": "params",
          "type": "tuple"
        }
      ],
      "name": "liquidate",
      "outputs": [],
      "stateMutability": "nonpayable",
      "type": "function"
    },
    {
      "inputs": [
        {
          "internalType": "bytes32",
          "name": "positionHash",
          "type": "bytes32"
        },
        {
          "internalType": "uint256",
          "name": "positionIndex",
          "type": "uint256"
        },
        {
          "internalType": "address",
          "name": "owner",
          "type": "address"
        }
      ],
      "name": "liquidityBalances",
      "outputs": [
        {
          "internalType": "uint128",
          "name": "liquidityBalance",
          "type": "uint128"
        }
      ],
      "stateMutability": "view",
      "type": "function"
    },
    {
      "inputs": [
        {
          "internalType": "bytes32",
          "name": "positionHash",
          "type": "bytes32"
        }
      ],
      "name": "positionIndexes",
      "outputs": [
        {
          "internalType": "uint256",
          "name": "positionIndex",
          "type": "uint256"
        }
      ],
      "stateMutability": "view",
      "type": "function"
    },
    {
      "inputs": [
        {
          "internalType": "bytes32",
          "name": "positionHash",
          "type": "bytes32"
        },
        {
          "internalType": "uint256",
          "name": "positionIndex",
          "type": "uint256"
        }
      ],
      "name": "positions",
      "outputs": [
        {
          "components": [
            {
              "internalType": "uint128",
              "name": "liquidity",
              "type": "uint128"
            },
            {
              "internalType": "bool",
              "name": "liquidated",
              "type": "bool"
            }
          ],
          "internalType": "struct IRangeOrderPositionManager.Position",
          "name": "position",
          "type": "tuple"
        }
      ],
      "stateMutability": "view",
      "type": "function"
    },
    {
      "inputs": [
        {
          "components": [
            {
              "internalType": "uint256",
              "name": "positionIndex",
              "type": "uint256"
            },
            {
              "internalType": "address",
              "name": "tokenIn",
              "type": "address"
            },
            {
              "internalType": "address",
              "name": "tokenOut",
              "type": "address"
            },
            {
              "internalType": "uint24",
              "name": "fee",
              "type": "uint24"
            },
            {
              "internalType": "int24",
              "name": "tickLower",
              "type": "int24"
            },
            {
              "internalType": "int24",
              "name": "tickUpper",
              "type": "int24"
            },
            {
              "internalType": "address",
              "name": "owner",
              "type": "address"
            },
            {
              "internalType": "uint128",
              "name": "liquidity",
              "type": "uint128"
            }
          ],
          "internalType": "struct IRangeOrderPositionManager.ResolveParams",
          "name": "params",
          "type": "tuple"
        }
      ],
      "name": "resolve",
      "outputs": [],
      "stateMutability": "nonpayable",
      "type": "function"
    },
    {
      "inputs": [
        {
          "internalType": "uint256",
          "name": "amount0Owed",
          "type": "uint256"
        },
        {
          "internalType": "uint256",
          "name": "amount1Owed",
          "type": "uint256"
        },
        {
          "internalType": "bytes",
          "name": "data",
          "type": "bytes"
        }
      ],
      "name": "uniswapV3MintCallback",
      "outputs": [],
      "stateMutability": "nonpayable",
      "type": "function"
    }
  ],
  "bytecode": "0x60a06040523480156200001157600080fd5b50604051620025b4380380620025b483398101604081905262000034916200004a565b60601b6001600160601b0319166080526200007a565b6000602082840312156200005c578081fd5b81516001600160a01b038116811462000073578182fd5b9392505050565b60805160601c612512620000a260003980610856528061089f528061192752506125126000f3fe608060405234801561001057600080fd5b50600436106100be5760003560e01c8063d0d9ee7911610076578063df0a2f521161005b578063df0a2f521461016f578063fe2df76114610182578063fe990ed614610195576100be565b8063d0d9ee791461013c578063d34879971461015c576100be565b80636355a3d2116100a75780636355a3d2146100eb5780639ef956a214610114578063c45a015514610127576100be565b806308226ca3146100c357806330d6d193146100d8575b600080fd5b6100d66100d1366004611e28565b6101b5565b005b6100d66100e6366004611e44565b610437565b6100fe6100f9366004611db8565b6106ae565b60405161010b9190612448565b60405180910390f35b6100d6610122366004611e7f565b6106e5565b61012f610854565b60405161010b91906120f3565b61014f61014a366004611d7f565b610878565b60405161010b919061245c565b6100d661016a366004612078565b61088a565b6100d661017d366004611e28565b610908565b6100d6610190366004611e90565b610bab565b6101a86101a3366004611d97565b610ed2565b60405161010b9190612426565b60006101c76040830160208401611d63565b6101d76060840160408501611d63565b6101e7608085016060860161203b565b6101f760a0860160808701611df0565b61020760c0870160a08801611df0565b60405160200161021b959493929190612107565b60408051808303601f190181529181528151602092830120600081815260018085528382208735835290945291909120805491935091600160801b90910460ff161515146102845760405162461bcd60e51b815260040161027b90612341565b60405180910390fd5b6000828152600260209081526040808320863584529091528120816102af60e0870160c08801611d63565b6001600160a01b031681526020810191909152604001600020546001600160801b03169050806102f15760405162461bcd60e51b815260040161027b9061222e565b60008061030c61030760a0880160808901611df0565b610f21565b9050600061032361030760c0890160a08a01611df0565b90506103356060880160408901611d63565b6001600160a01b031661034e6040890160208a01611d63565b6001600160a01b0316101561036f57610368828286611253565b925061037d565b61037a8282866112a0565b92505b6103a66103906060890160408a01611d63565b6103a060e08a0160c08b01611d63565b85611309565b84546001600160801b03808216869003166001600160801b031990911617855560008681526002602090815260408083208a358452909152812085916103f260e08b0160c08c01611d63565b6001600160a01b03168152602081019190915260400160002080546001600160801b031981166001600160801b03918216939093031691909117905550505050505050565b61044460208201826124b3565b90506104508280612465565b90501461046f5760405162461bcd60e51b815260040161027b9061229c565b60006104cf60408301356104896080850160608601611d63565b61049960a0860160808701611d63565b6104a960c0870160a0880161203b565b6104b960e0880160c08901611df0565b6104ca610100890160e08a01611df0565b611465565b905060006104e36080840160608501611d63565b6104f360a0850160808601611d63565b61050360c0860160a0870161203b565b61051360e0870160c08801611df0565b610524610100880160e08901611df0565b604051602001610538959493929190612107565b60408051601f1981840301815291815281516020928301206000818152808452828120546001855283822081835290945291822090935090805b61057f60208801886124b3565b90508160ff16101561066057600061059a60208901896124b3565b8360ff168181106105a757fe5b905060200201359050808301925060006105cf82896001600160801b03168b6040013561165f565b60008881526002602090815260408083208a845290915281209192508291906105f88c80612465565b8760ff1681811061060557fe5b905060200201602081019061061a9190611d63565b6001600160a01b03168152602081019190915260400160002080546001600160801b031981166001600160801b0391821693909301169190911790555050600101610572565b50856040013581146106845760405162461bcd60e51b815260040161027b90612378565b5080546001600160801b031981166001600160801b03918216959095011693909317909255505050565b60009283526002602090815260408085209385529281528284206001600160a01b039092168452529020546001600160801b031690565b600061073f60208301356106ff6060850160408601611d63565b61070f6080860160608701611d63565b61071f60a087016080880161203b565b61072f60c0880160a08901611df0565b6104ca60e0890160c08a01611df0565b905060006107536060840160408501611d63565b6107636080850160608601611d63565b61077360a086016080870161203b565b61078360c0870160a08801611df0565b61079360e0880160c08901611df0565b6040516020016107a7959493929190612107565b60408051601f198184030181529181528151602092830120600081815280845282812054600185528382208183528552838220838352600286528483208284528652938220929550938692919061080090890189611d63565b6001600160a01b03168152602081019190915260400160002080546001600160801b0380821690930183166001600160801b0319918216179091558254808316909601909116941693909317909255505050565b7f000000000000000000000000000000000000000000000000000000000000000081565b60009081526020819052604090205490565b600061089882840184611ea1565b90506108c87f0000000000000000000000000000000000000000000000000000000000000000826000015161170e565b5084156108e35780515160208201516108e391903388611737565b83156109015761090181600001516020015182602001513387611737565b5050505050565b600061091a6040830160208401611d63565b61092a6060840160408501611d63565b61093a608085016060860161203b565b61094a60a0860160808701611df0565b61095a60c0870160a08801611df0565b60405160200161096e959493929190612107565b60408051601f1981840301815291815281516020928301206000818152600284528281208635825284528281203382529093529120549091506001600160801b0316806109c160e0850160c08601611f4c565b6001600160801b031611156109e85760405162461bcd60e51b815260040161027b90612265565b6000610a226109fd6040860160208701611d63565b610a0d6060870160408801611d63565b610a1d608088016060890161203b565b6118a4565b509050610a6e81610a396040870160208801611d63565b610a496060880160408901611d63565b610a5960a0890160808a01611df0565b610a6960c08a0160a08b01611df0565b611956565b15610a8b5760405162461bcd60e51b815260040161027b9061230a565b600080610a9f610100870160e08801611d63565b6001600160a01b031614610ac357610abe610100860160e08701611d63565b610ac5565b335b9050610b0182610adb60a0880160808901611df0565b610aeb60c0890160a08a01611df0565b610afb60e08a0160c08b01611f4c565b85611a14565b610b1160e0860160c08701611f4c565b600085815260016020908152604080832089358452909152902080546001600160801b031981166001600160801b039182169390930316919091179055610b5e60e0860160c08701611f4c565b60009485526002602090815260408087209735875296815286862033875290529490932080546001600160801b031981166001600160801b03918216969096031694909417909355505050565b6000610bba6020830183611d63565b610bca6040840160208501611d63565b610bda606085016040860161203b565b610bea6080860160608701611df0565b610bfa60a0870160808801611df0565b604051602001610c0e959493929190612107565b60408051808303601f1901815291815281516020928301206000818152600184528281208185528382205482529093529120805491925090600160801b900460ff1615610c6d5760405162461bcd60e51b815260040161027b906122d3565b6000610c9f610c7f6020860186611d63565b610c8f6040870160208801611d63565b610a1d606088016040890161203b565b509050610ce381610cb36020870187611d63565b610cc36040880160208901611d63565b610cd36080890160608a01611df0565b610a6960a08a0160808b01611df0565b1515600114610d045760405162461bcd60e51b815260040161027b9061230a565b610d3981610d186080870160608801611df0565b610d2860a0880160808901611df0565b85546001600160801b031630611a14565b6001600160a01b038116634f1eb3d86000610d5a60c0880160a08901611d63565b6001600160a01b031614610d7d57610d7860c0870160a08801611d63565b610d7f565b335b610d8f6080880160608901611df0565b610d9f60a0890160808a01611df0565b610daf60408a0160208b01611d63565b6001600160a01b0316610dc560208b018b611d63565b6001600160a01b031610610de0576001600160801b03610de3565b60005b610df360408b0160208c01611d63565b6001600160a01b0316610e0960208c018c611d63565b6001600160a01b031610610e1e576000610e27565b6001600160801b035b6040518663ffffffff1660e01b8152600401610e479594939291906121cb565b6040805180830381600087803b158015610e6057600080fd5b505af1158015610e74573d6000803e3d6000fd5b505050506040513d601f19601f82011682018060405250810190610e989190611f68565b5050815470ff000000000000000000000000000000001916600160801b179091555060009081526020819052604090208054600101905550565b610eda611ce4565b506000918252600160209081526040808420928452918152918190208151808301909252546001600160801b0381168252600160801b900460ff1615159181019190915290565b60008060008360020b12610f38578260020b610f40565b8260020b6000035b9050620d89e8811115610f7e576040805162461bcd60e51b81526020600482015260016024820152601560fa1b604482015290519081900360640190fd5b600060018216610f9257600160801b610fa4565b6ffffcb933bd6fad37aa2d162d1a5940015b70ffffffffffffffffffffffffffffffffff1690506002821615610fd8576ffff97272373d413259a46990580e213a0260801c5b6004821615610ff7576ffff2e50f5f656932ef12357cf3c7fdcc0260801c5b6008821615611016576fffe5caca7e10e4e61c3624eaa0941cd00260801c5b6010821615611035576fffcb9843d60f6159c9db58835c9266440260801c5b6020821615611054576fff973b41fa98c081472e6896dfb254c00260801c5b6040821615611073576fff2ea16466c96a3843ec78b326b528610260801c5b6080821615611092576ffe5dee046a99a2a811c461f1969c30530260801c5b6101008216156110b2576ffcbe86c7900a88aedcffc83b479aa3a40260801c5b6102008216156110d2576ff987a7253ac413176f2b074cf7815e540260801c5b6104008216156110f2576ff3392b0822b70005940c7a398e4b70f30260801c5b610800821615611112576fe7159475a2c29b7443b29c7fa6e889d90260801c5b611000821615611132576fd097f3bdfd2022b8845ad8f792aa58250260801c5b612000821615611152576fa9f746462d870fdf8a65dc1f90e061e50260801c5b614000821615611172576f70d869a156d2a1b890bb3df62baf32f70260801c5b618000821615611192576f31be135f97d08fd981231505542fcfa60260801c5b620100008216156111b3576f09aa508b5b7a84e1c677de54f3e99bc90260801c5b620200008216156111d3576e5d6af8dedb81196699c329225ee6040260801c5b620400008216156111f2576d2216e584f5fa1ea926041bedfe980260801c5b6208000082161561120f576b048a170391f7dc42444e8fa20260801c5b60008460020b131561122a57806000198161122657fe5b0490505b64010000000081061561123e576001611241565b60005b60ff16602082901c0192505050919050565b6000826001600160a01b0316846001600160a01b03161115611273579192915b611296826001600160801b03168585036001600160a01b0316600160601b61165f565b90505b9392505050565b6000826001600160a01b0316846001600160a01b031611156112c0579192915b836001600160a01b03166112f9606060ff16846001600160801b0316901b8686036001600160a01b0316866001600160a01b031661165f565b8161130057fe5b04949350505050565b604080516001600160a01b038481166024830152604480830185905283518084039091018152606490920183526020820180517bffffffffffffffffffffffffffffffffffffffffffffffffffffffff1663a9059cbb60e01b1781529251825160009485949389169392918291908083835b6020831061139a5780518252601f19909201916020918201910161137b565b6001836020036101000a0380198251168184511680821785525050505050509050019150506000604051808303816000865af19150503d80600081146113fc576040519150601f19603f3d011682016040523d82523d6000602084013e611401565b606091505b509150915081801561142f57508051158061142f575080806020019051602081101561142c57600080fd5b50515b610901576040805162461bcd60e51b815260206004820152600260248201526114d560f21b604482015290519081900360640190fd5b60008060006114758888886118a4565b915091506114868289898888611956565b156114a35760405162461bcd60e51b815260040161027b9061230a565b816001600160a01b031663d0c93a7c6040518163ffffffff1660e01b815260040160206040518083038186803b1580156114dc57600080fd5b505afa1580156114f0573d6000803e3d6000fd5b505050506040513d601f19601f820116820180604052508101906115149190611e0c565b60020b85850360020b1461153a5760405162461bcd60e51b815260040161027b906123af565b600061154586610f21565b9050600061155286610f21565b9050886001600160a01b03168a6001600160a01b031610156115805761157982828d611b2d565b945061158e565b61158b82828d611b90565b94505b836001600160a01b0316633c8a7d8d3089898960405180604001604052808a8152602001336001600160a01b03168152506040516020016115cf91906123e6565b6040516020818303038152906040526040518663ffffffff1660e01b81526004016115fe959493929190612143565b6040805180830381600087803b15801561161757600080fd5b505af115801561162b573d6000803e3d6000fd5b505050506040513d601f19601f8201168201806040525081019061164f9190612055565b5050505050509695505050505050565b6000808060001985870986860292508281109083900303905080611695576000841161168a57600080fd5b508290049050611299565b8084116116a157600080fd5b6000848688096000868103871696879004966002600389028118808a02820302808a02820302808a02820302808a02820302808a02820302808a02909103029181900381900460010186841190950394909402919094039290920491909117919091029150509392505050565b600061171a8383611bcd565b9050336001600160a01b0382161461173157600080fd5b92915050565b604080516001600160a01b0385811660248301528481166044830152606480830185905283518084039091018152608490920183526020820180517bffffffffffffffffffffffffffffffffffffffffffffffffffffffff166323b872dd60e01b178152925182516000948594938a169392918291908083835b602083106117d05780518252601f1990920191602091820191016117b1565b6001836020036101000a0380198251168184511680821785525050505050509050019150506000604051808303816000865af19150503d8060008114611832576040519150601f19603f3d011682016040523d82523d6000602084013e611837565b606091505b5091509150818015611865575080511580611865575080806020019051602081101561186257600080fd5b50515b61189c576040805162461bcd60e51b815260206004820152600360248201526229aa2360e91b604482015290519081900360640190fd5b505050505050565b60006118ae611cfb565b6040518060600160405280856001600160a01b0316876001600160a01b0316106118d857856118da565b865b6001600160a01b03168152602001856001600160a01b0316876001600160a01b0316106119075786611909565b855b6001600160a01b031681526020018462ffffff16815250905061194c7f000000000000000000000000000000000000000000000000000000000000000082611bcd565b9150935093915050565b600080866001600160a01b0316633850c7bd6040518163ffffffff1660e01b815260040160e06040518083038186803b15801561199257600080fd5b505afa1580156119a6573d6000803e3d6000fd5b505050506040513d601f19601f820116820180604052508101906119ca9190611fa1565b5050505050915050846001600160a01b0316866001600160a01b031610156119fe578260020b8160020b1215915050611a0b565b8360020b8160020b129150505b95945050505050565b600080866001600160a01b031663a34123a78787876040518463ffffffff1660e01b8152600401611a4793929190612208565b6040805180830381600087803b158015611a6057600080fd5b505af1158015611a74573d6000803e3d6000fd5b505050506040513d601f19601f82011682018060405250810190611a989190612055565b6040516309e3d67b60e31b815291935091506001600160a01b03881690634f1eb3d890611ad19086908a908a90889088906004016121cb565b6040805180830381600087803b158015611aea57600080fd5b505af1158015611afe573d6000803e3d6000fd5b505050506040513d601f19601f82011682018060405250810190611b229190611f68565b505050505050505050565b6000826001600160a01b0316846001600160a01b03161115611b4d579192915b6000611b70856001600160a01b0316856001600160a01b0316600160601b61165f565b9050611a0b611b8b84838888036001600160a01b031661165f565b611cc9565b6000826001600160a01b0316846001600160a01b03161115611bb0579192915b611296611b8b83600160601b8787036001600160a01b031661165f565b600081602001516001600160a01b031682600001516001600160a01b031610611bf557600080fd5b50805160208083015160409384015184516001600160a01b0394851681850152939091168385015262ffffff166060808401919091528351808403820181526080840185528051908301207fff0000000000000000000000000000000000000000000000000000000000000060a085015294901b6bffffffffffffffffffffffff191660a183015260b58201939093527fafc936cadc66fde42e5aaf0dc783f4745a29300624a875334d8ff311b37e225b60d5808301919091528251808303909101815260f5909101909152805191012090565b806001600160801b0381168114611cdf57600080fd5b919050565b604080518082019091526000808252602082015290565b604080516060810182526000808252602082018190529181019190915290565b8035611cdf816124c9565b60006101008284031215611d38578081fd5b50919050565b805161ffff81168114611cdf57600080fd5b803562ffffff81168114611cdf57600080fd5b600060208284031215611d74578081fd5b8135611299816124c9565b600060208284031215611d90578081fd5b5035919050565b60008060408385031215611da9578081fd5b50508035926020909101359150565b600080600060608486031215611dcc578081fd5b83359250602084013591506040840135611de5816124c9565b809150509250925092565b600060208284031215611e01578081fd5b8135611299816124e1565b600060208284031215611e1d578081fd5b8151611299816124e1565b60006101008284031215611e3a578081fd5b6112998383611d26565b600060208284031215611e55578081fd5b813567ffffffffffffffff811115611e6b578182fd5b611e7784828501611d26565b949350505050565b600060e08284031215611d38578081fd5b600060c08284031215611d38578081fd5b60008183036080811215611eb3578182fd5b6040516040810167ffffffffffffffff8282108183111715611ed157fe5b816040526060841215611ee2578485fd5b60a0830193508184108185111715611ef657fe5b508260405284359250611f08836124c9565b918252602084013591611f1a836124c9565b826060830152611f2c60408601611d50565b60808301528152611f3f60608501611d1b565b6020820152949350505050565b600060208284031215611f5d578081fd5b8135611299816124f0565b60008060408385031215611f7a578182fd5b8251611f85816124f0565b6020840151909250611f96816124f0565b809150509250929050565b600080600080600080600060e0888a031215611fbb578485fd5b8751611fc6816124c9565b6020890151909750611fd7816124e1565b9550611fe560408901611d3e565b9450611ff360608901611d3e565b935061200160808901611d3e565b925060a088015160ff81168114612016578283fd5b60c0890151909250801515811461202b578182fd5b8091505092959891949750929550565b60006020828403121561204c578081fd5b61129982611d50565b60008060408385031215612067578182fd5b505080516020909101519092909150565b6000806000806060858703121561208d578182fd5b8435935060208501359250604085013567ffffffffffffffff808211156120b2578384fd5b818701915087601f8301126120c5578384fd5b8135818111156120d3578485fd5b8860208285010111156120e4578485fd5b95989497505060200194505050565b6001600160a01b0391909116815260200190565b6001600160a01b03958616815293909416602084015262ffffff919091166040830152600290810b60608301529190910b608082015260a00190565b60006001600160a01b038716825260208660020b818401528560020b60408401526001600160801b038516606084015260a0608084015283518060a0850152825b818110156121a05785810183015185820160c001528201612184565b818111156121b1578360c083870101525b50601f01601f19169290920160c001979650505050505050565b6001600160a01b03959095168552600293840b60208601529190920b60408401526001600160801b03918216606084015216608082015260a00190565b600293840b81529190920b60208201526001600160801b03909116604082015260600190565b6020808252600c908201527f4e4f5f4c49515549444954590000000000000000000000000000000000000000604082015260600190565b60208082526015908201527f4e4f545f454e4f554748545f4c49515549444954590000000000000000000000604082015260600190565b60208082526016908201527f4f52444552535f4c454e4754485f4d49534d4154434800000000000000000000604082015260600190565b6020808252600a908201527f4c49515549444154454400000000000000000000000000000000000000000000604082015260600190565b6020808252600c908201527f4f55545f4f465f52414e47450000000000000000000000000000000000000000604082015260600190565b6020808252600e908201527f4e4f545f4c495155494441544544000000000000000000000000000000000000604082015260600190565b60208082526010908201527f4241445f494e5055545f414d4f554e5400000000000000000000000000000000604082015260600190565b6020808252600e908201527f4241445f52414e47455f53495a45000000000000000000000000000000000000604082015260600190565b815180516001600160a01b03908116835260208083015182168185015260409283015162ffffff1692840192909252920151909116606082015260800190565b81516001600160801b0316815260209182015115159181019190915260400190565b6001600160801b0391909116815260200190565b90815260200190565b6000808335601e1984360301811261247b578283fd5b83018035915067ffffffffffffffff821115612495578283fd5b60209081019250810236038213156124ac57600080fd5b9250929050565b6000808335601e1984360301811261247b578182fd5b6001600160a01b03811681146124de57600080fd5b50565b8060020b81146124de57600080fd5b6001600160801b03811681146124de57600080fdfea164736f6c6343000706000a",
  "linkReferences": {},
  "deployedLinkReferences": {}
}