{
  "_format": "hh-sol-artifact-1",
  "contractName": "RangeOrderPositionManager",
  "sourceName": "contracts/RangeOrderPositionManager.sol",
  "abi": [
    {
      "inputs": [
        {
          "internalType": "address",
          "name": "_factory",
          "type": "address"
        }
      ],
      "stateMutability": "nonpayable",
      "type": "constructor"
    },
    {
      "inputs": [],
      "name": "factory",
      "outputs": [
        {
          "internalType": "address",
          "name": "",
          "type": "address"
        }
      ],
      "stateMutability": "view",
      "type": "function"
    },
    {
      "inputs": [
        {
          "components": [
            {
              "internalType": "address",
              "name": "owner",
              "type": "address"
            },
            {
              "internalType": "uint256",
              "name": "inputAmount",
              "type": "uint256"
            },
            {
              "internalType": "address",
              "name": "tokenIn",
              "type": "address"
            },
            {
              "internalType": "address",
              "name": "tokenOut",
              "type": "address"
            },
            {
              "internalType": "uint24",
              "name": "fee",
              "type": "uint24"
            },
            {
              "internalType": "int24",
              "name": "tickLower",
              "type": "int24"
            },
            {
              "internalType": "int24",
              "name": "tickUpper",
              "type": "int24"
            }
          ],
          "internalType": "struct IRangeOrderPositionManager.IncreaseLiquidityParams",
          "name": "params",
          "type": "tuple"
        }
      ],
      "name": "increaseLiquidity",
      "outputs": [],
      "stateMutability": "nonpayable",
      "type": "function"
    },
    {
      "inputs": [
        {
          "components": [
            {
              "internalType": "address[]",
              "name": "owners",
              "type": "address[]"
            },
            {
              "internalType": "uint256[]",
              "name": "inputAmounts",
              "type": "uint256[]"
            },
            {
              "internalType": "uint256",
              "name": "totalInputAmount",
              "type": "uint256"
            },
            {
              "internalType": "address",
              "name": "tokenIn",
              "type": "address"
            },
            {
              "internalType": "address",
              "name": "tokenOut",
              "type": "address"
            },
            {
              "internalType": "uint24",
              "name": "fee",
              "type": "uint24"
            },
            {
              "internalType": "int24",
              "name": "tickLower",
              "type": "int24"
            },
            {
              "internalType": "int24",
              "name": "tickUpper",
              "type": "int24"
            }
          ],
          "internalType": "struct IRangeOrderPositionManager.IncreaseLiquidityMultiParams",
          "name": "params",
          "type": "tuple"
        }
      ],
      "name": "increaseLiquidityMulti",
      "outputs": [],
      "stateMutability": "nonpayable",
      "type": "function"
    },
    {
      "inputs": [
        {
          "internalType": "bytes32",
          "name": "positionHash",
          "type": "bytes32"
        },
        {
          "internalType": "uint256",
          "name": "positionIndex",
          "type": "uint256"
        },
        {
          "internalType": "address",
          "name": "owner",
          "type": "address"
        }
      ],
      "name": "liquidityBalances",
      "outputs": [
        {
          "internalType": "uint128",
          "name": "liquidityBalance",
          "type": "uint128"
        }
      ],
      "stateMutability": "view",
      "type": "function"
    },
    {
      "inputs": [
        {
          "internalType": "bytes32",
          "name": "positionHash",
          "type": "bytes32"
        }
      ],
      "name": "positionIndexes",
      "outputs": [
        {
          "internalType": "uint256",
          "name": "positionIndex",
          "type": "uint256"
        }
      ],
      "stateMutability": "view",
      "type": "function"
    },
    {
      "inputs": [
        {
          "internalType": "bytes32",
          "name": "positionHash",
          "type": "bytes32"
        },
        {
          "internalType": "uint256",
          "name": "positionIndex",
          "type": "uint256"
        }
      ],
      "name": "positions",
      "outputs": [
        {
          "components": [
            {
              "internalType": "uint128",
              "name": "liquidity",
              "type": "uint128"
            },
            {
              "internalType": "bool",
              "name": "resolved",
              "type": "bool"
            }
          ],
          "internalType": "struct IRangeOrderPositionManager.Position",
          "name": "position",
          "type": "tuple"
        }
      ],
      "stateMutability": "view",
      "type": "function"
    },
    {
      "inputs": [
        {
          "components": [
            {
              "internalType": "address",
              "name": "tokenIn",
              "type": "address"
            },
            {
              "internalType": "address",
              "name": "tokenOut",
              "type": "address"
            },
            {
              "internalType": "uint24",
              "name": "fee",
              "type": "uint24"
            },
            {
              "internalType": "int24",
              "name": "tickLower",
              "type": "int24"
            },
            {
              "internalType": "int24",
              "name": "tickUpper",
              "type": "int24"
            },
            {
              "internalType": "address",
              "name": "recipient",
              "type": "address"
            }
          ],
          "internalType": "struct IRangeOrderPositionManager.ResolvePositionParams",
          "name": "params",
          "type": "tuple"
        }
      ],
      "name": "resolvePosition",
      "outputs": [],
      "stateMutability": "nonpayable",
      "type": "function"
    },
    {
      "inputs": [
        {
          "internalType": "uint256",
          "name": "amount0Owed",
          "type": "uint256"
        },
        {
          "internalType": "uint256",
          "name": "amount1Owed",
          "type": "uint256"
        },
        {
          "internalType": "bytes",
          "name": "data",
          "type": "bytes"
        }
      ],
      "name": "uniswapV3MintCallback",
      "outputs": [],
      "stateMutability": "nonpayable",
      "type": "function"
    },
    {
      "inputs": [
        {
          "components": [
            {
              "internalType": "uint256",
              "name": "positionIndex",
              "type": "uint256"
            },
            {
              "internalType": "address",
              "name": "tokenIn",
              "type": "address"
            },
            {
              "internalType": "address",
              "name": "tokenOut",
              "type": "address"
            },
            {
              "internalType": "uint24",
              "name": "fee",
              "type": "uint24"
            },
            {
              "internalType": "int24",
              "name": "tickLower",
              "type": "int24"
            },
            {
              "internalType": "int24",
              "name": "tickUpper",
              "type": "int24"
            },
            {
              "internalType": "uint128",
              "name": "liquidity",
              "type": "uint128"
            },
            {
              "internalType": "address",
              "name": "recipient",
              "type": "address"
            }
          ],
          "internalType": "struct IRangeOrderPositionManager.WithdrawParams",
          "name": "params",
          "type": "tuple"
        }
      ],
      "name": "withdrawOrder",
      "outputs": [],
      "stateMutability": "nonpayable",
      "type": "function"
    }
  ],
  "bytecode": "0x60a060405234801561001057600080fd5b506040516200243e3803806200243e83398101604081905261003191610046565b60601b6001600160601b031916608052610074565b600060208284031215610057578081fd5b81516001600160a01b038116811461006d578182fd5b9392505050565b60805160601c6123a26200009c60003980610c0b5280610c54528061103252506123a26000f3fe608060405234801561001057600080fd5b50600436106100a35760003560e01c80639ef956a211610076578063d0d9ee791161005b578063d0d9ee7914610134578063d348799714610154578063fe990ed614610167576100a3565b80639ef956a21461010c578063c45a01551461011f576100a3565b806330d6d193146100a857806343342118146100bd5780636355a3d2146100d05780639325d1f9146100f9575b600080fd5b6100bb6100b6366004611d2e565b610187565b005b6100bb6100cb366004611e1d565b610419565b6100e36100de366004611cbe565b610618565b6040516100f091906122d8565b60405180910390f35b6100bb610107366004611e2e565b61064f565b6100bb61011a366004611d61565b610a91565b610127610c09565b6040516100f09190611ff1565b610147610142366004611c85565b610c2d565b6040516100f091906122ec565b6100bb610162366004611f76565b610c3f565b61017a610175366004611c9d565b610cb6565b6040516100f091906122b6565b6101946020820182612343565b90506101a082806122f5565b9050146101c85760405162461bcd60e51b81526004016101bf9061219a565b60405180910390fd5b600061022860408301356101e26080850160608601611c69565b6101f260a0860160808701611c69565b61020260c0870160a08801611f39565b61021260e0880160c08901611cf6565b610223610100890160e08a01611cf6565b610d05565b9050600061023c6080840160608501611c69565b61024c60a0850160808601611c69565b61025c60c0860160a08701611f39565b61026c60e0870160c08801611cf6565b61027d610100880160e08901611cf6565b604051602001610291959493929190612005565b60408051601f1981840301815291815281516020928301206000818152808452828120546001855283822081835290945291822090935090805b6102d86020880188612343565b90508160ff1610156103c25760006102f36020890189612343565b8360ff1681811061030057fe5b9050602002013590508083019250600061032882896001600160801b03168b60400135610eff565b60008881526002602090815260408083208a845290915281209192508291906103518c806122f5565b8760ff1681811061035e57fe5b90506020020160208101906103739190611c69565b6001600160a01b03168152602081019190915260400160002080546fffffffffffffffffffffffffffffffff1981166001600160801b03918216939093011691909117905550506001016102cb565b50856040013581146103e65760405162461bcd60e51b81526004016101bf90612208565b5080546fffffffffffffffffffffffffffffffff1981166001600160801b03918216959095011693909317909255505050565b60006104286020830183611c69565b6104386040840160208501611c69565b6104486060850160408601611f39565b6104586080860160608701611cf6565b61046860a0870160808801611cf6565b60405160200161047c959493929190612005565b60408051808303601f1901815291815281516020928301206000818152600184528281208185528382205482529093529120805491925090600160801b900460ff16156104db5760405162461bcd60e51b81526004016101bf9061212c565b60006105126104ed6020860186611c69565b6104fd6040870160208801611c69565b61050d6060880160408901611f39565b610faf565b50905061055b816105266020870187611c69565b6105366040880160208901611c69565b6105466080890160608a01611cf6565b61055660a08a0160808b01611cf6565b611061565b151560011461057c5760405162461bcd60e51b81526004016101bf906121d1565b60008061058f60c0870160a08801611c69565b6001600160a01b0316146105b2576105ad60c0860160a08701611c69565b6105b4565b335b905061061184836105cb6040890160208a01611c69565b6001600160a01b03166105e160208a018a611c69565b6001600160a01b0316106105fb60808a0160608b01611cf6565b61060b60a08b0160808c01611cf6565b8661111f565b5050505050565b60009283526002602090815260408085209385529281528284206001600160a01b039092168452529020546001600160801b031690565b60006106616040830160208401611c69565b6106716060840160408501611c69565b6106816080850160608601611f39565b61069160a0860160808701611cf6565b6106a160c0870160a08801611cf6565b6040516020016106b5959493929190612005565b60408051601f1981840301815291815281516020928301206000818152600284528281208635825284528281203382529093529120549091506001600160801b03168061070860e0850160c08601611e4a565b6001600160801b0316111561072f5760405162461bcd60e51b81526004016101bf90612163565b600082815260016020908152604080832086358452909152808220919061075c9060608701908701611c69565b6001600160a01b03166107756040870160208801611c69565b6001600160a01b0316109050600080610795610100880160e08901611c69565b6001600160a01b0316146107b9576107b4610100870160e08801611c69565b6107bb565b335b8354909150600090600160801b900460ff166109505760006108066107e660408a0160208b01611c69565b6107f660608b0160408c01611c69565b61050d60808c0160608d01611f39565b5090506000816001600160a01b0316633850c7bd6040518163ffffffff1660e01b815260040160e06040518083038186803b15801561084457600080fd5b505afa158015610858573d6000803e3d6000fd5b505050506040513d601f19601f8201168201806040525081019061087c9190611e9f565b5050505050915050841515600115151480156108ad57506108a360c08a0160a08b01611cf6565b60020b8160020b12155b806108d55750841580156108d557506108cc60a08a0160808b01611cf6565b60020b8160020b125b1561090e576109098883876108f060a08e0160808f01611cf6565b8d60a00160208101906109039190611cf6565b8961111f565b61094d565b6109488261092260a08c0160808d01611cf6565b61093260c08d0160a08e01611cf6565b61094260e08e0160c08f01611e4a565b88611242565b600192505b50505b806109f05760008061097061096b60a08b0160808c01611cf6565b61135b565b9050600061098761096b60c08c0160a08d01611cf6565b9050600186151514156109b5576109ae82826109a960e08e0160c08f01611e4a565b61168d565b92506109d2565b6109cf82826109ca60e08e0160c08f01611e4a565b6116d8565b92505b6109ec6109e560608c0160408d01611c69565b8685611741565b5050505b610a0060e0880160c08901611e4a565b84546fffffffffffffffffffffffffffffffff1981166001600160801b039182169290920316178455610a3960e0880160c08901611e4a565b60009687526002602090815260408089209935895298815288882033895290529690952080546fffffffffffffffffffffffffffffffff1981166001600160801b039182169890980316969096179095555050505050565b6000610aeb6020830135610aab6060850160408601611c69565b610abb6080860160608701611c69565b610acb60a0870160808801611f39565b610adb60c0880160a08901611cf6565b61022360e0890160c08a01611cf6565b90506000610aff6060840160408501611c69565b610b0f6080850160608601611c69565b610b1f60a0860160808701611f39565b610b2f60c0870160a08801611cf6565b610b3f60e0880160c08901611cf6565b604051602001610b53959493929190612005565b60408051601f1981840301815291815281516020928301206000818152808452828120546001855283822081835285528382208383526002865284832082845286529382209295509386929190610bac90890189611c69565b6001600160a01b03168152602081019190915260400160002080546001600160801b0380821690930183166fffffffffffffffffffffffffffffffff19918216179091558254808316909601909116941693909317909255505050565b7f000000000000000000000000000000000000000000000000000000000000000081565b60009081526020819052604090205490565b6000610c4d82840184611d72565b9050610c7d7f0000000000000000000000000000000000000000000000000000000000000000826000015161189d565b508415610c98578051516020820151610c98919033886118c6565b831561061157610611816000015160200151826020015133876118c6565b610cbe611bea565b506000918252600160209081526040808420928452918152918190208151808301909252546001600160801b0381168252600160801b900460ff1615159181019190915290565b6000806000610d15888888610faf565b91509150610d268289898888611061565b15610d435760405162461bcd60e51b81526004016101bf906121d1565b816001600160a01b031663d0c93a7c6040518163ffffffff1660e01b815260040160206040518083038186803b158015610d7c57600080fd5b505afa158015610d90573d6000803e3d6000fd5b505050506040513d601f19601f82011682018060405250810190610db49190611d12565b60020b85850360020b14610dda5760405162461bcd60e51b81526004016101bf9061223f565b6000610de58661135b565b90506000610df28661135b565b9050886001600160a01b03168a6001600160a01b03161015610e2057610e1982828d611a33565b9450610e2e565b610e2b82828d611a96565b94505b836001600160a01b0316633c8a7d8d3089898960405180604001604052808a8152602001336001600160a01b0316815250604051602001610e6f9190612276565b6040516020818303038152906040526040518663ffffffff1660e01b8152600401610e9e959493929190612041565b6040805180830381600087803b158015610eb757600080fd5b505af1158015610ecb573d6000803e3d6000fd5b505050506040513d601f19601f82011682018060405250810190610eef9190611f53565b5050505050509695505050505050565b6000808060001985870986860292508281109083900303905080610f355760008411610f2a57600080fd5b508290049050610fa8565b808411610f4157600080fd5b6000848688096000868103871696879004966002600389028118808a02820302808a02820302808a02820302808a02820302808a02820302808a02909103029181900381900460010186841190950394909402919094039290920491909117919091029150505b9392505050565b6000610fb9611c01565b6040518060600160405280856001600160a01b0316876001600160a01b031610610fe35785610fe5565b865b6001600160a01b03168152602001856001600160a01b0316876001600160a01b0316106110125786611014565b855b6001600160a01b031681526020018462ffffff1681525090506110577f000000000000000000000000000000000000000000000000000000000000000082611ad3565b9150935093915050565b600080866001600160a01b0316633850c7bd6040518163ffffffff1660e01b815260040160e06040518083038186803b15801561109d57600080fd5b505afa1580156110b1573d6000803e3d6000fd5b505050506040513d601f19601f820116820180604052508101906110d59190611e9f565b5050505050915050846001600160a01b0316866001600160a01b03161015611109578260020b8160020b1215915050611116565b8360020b8160020b129150505b95945050505050565b600086815260016020908152604080832083835281842054845290915290208054611159908790869086906001600160801b031630611242565b856001600160a01b0316634f1eb3d88386868961117d576001600160801b03611180565b60005b8a61118c576000611195565b6001600160801b035b6040518663ffffffff1660e01b81526004016111b59594939291906120c9565b6040805180830381600087803b1580156111ce57600080fd5b505af11580156111e2573d6000803e3d6000fd5b505050506040513d601f19601f820116820180604052508101906112069190611e66565b5050805470ff000000000000000000000000000000001916600160801b1790555050506000928352505060208190526040902080546001019055565b600080866001600160a01b031663a34123a78787876040518463ffffffff1660e01b815260040161127593929190612106565b6040805180830381600087803b15801561128e57600080fd5b505af11580156112a2573d6000803e3d6000fd5b505050506040513d601f19601f820116820180604052508101906112c69190611f53565b6040516309e3d67b60e31b815291935091506001600160a01b03881690634f1eb3d8906112ff9086908a908a90889088906004016120c9565b6040805180830381600087803b15801561131857600080fd5b505af115801561132c573d6000803e3d6000fd5b505050506040513d601f19601f820116820180604052508101906113509190611e66565b505050505050505050565b60008060008360020b12611372578260020b61137a565b8260020b6000035b9050620d89e88111156113b8576040805162461bcd60e51b81526020600482015260016024820152601560fa1b604482015290519081900360640190fd5b6000600182166113cc57600160801b6113de565b6ffffcb933bd6fad37aa2d162d1a5940015b70ffffffffffffffffffffffffffffffffff1690506002821615611412576ffff97272373d413259a46990580e213a0260801c5b6004821615611431576ffff2e50f5f656932ef12357cf3c7fdcc0260801c5b6008821615611450576fffe5caca7e10e4e61c3624eaa0941cd00260801c5b601082161561146f576fffcb9843d60f6159c9db58835c9266440260801c5b602082161561148e576fff973b41fa98c081472e6896dfb254c00260801c5b60408216156114ad576fff2ea16466c96a3843ec78b326b528610260801c5b60808216156114cc576ffe5dee046a99a2a811c461f1969c30530260801c5b6101008216156114ec576ffcbe86c7900a88aedcffc83b479aa3a40260801c5b61020082161561150c576ff987a7253ac413176f2b074cf7815e540260801c5b61040082161561152c576ff3392b0822b70005940c7a398e4b70f30260801c5b61080082161561154c576fe7159475a2c29b7443b29c7fa6e889d90260801c5b61100082161561156c576fd097f3bdfd2022b8845ad8f792aa58250260801c5b61200082161561158c576fa9f746462d870fdf8a65dc1f90e061e50260801c5b6140008216156115ac576f70d869a156d2a1b890bb3df62baf32f70260801c5b6180008216156115cc576f31be135f97d08fd981231505542fcfa60260801c5b620100008216156115ed576f09aa508b5b7a84e1c677de54f3e99bc90260801c5b6202000082161561160d576e5d6af8dedb81196699c329225ee6040260801c5b6204000082161561162c576d2216e584f5fa1ea926041bedfe980260801c5b62080000821615611649576b048a170391f7dc42444e8fa20260801c5b60008460020b131561166457806000198161166057fe5b0490505b64010000000081061561167857600161167b565b60005b60ff16602082901c0192505050919050565b6000826001600160a01b0316846001600160a01b031611156116ad579192915b6116d0826001600160801b03168585036001600160a01b0316600160601b610eff565b949350505050565b6000826001600160a01b0316846001600160a01b031611156116f8579192915b836001600160a01b0316611731606060ff16846001600160801b0316901b8686036001600160a01b0316866001600160a01b0316610eff565b8161173857fe5b04949350505050565b604080516001600160a01b038481166024830152604480830185905283518084039091018152606490920183526020820180517bffffffffffffffffffffffffffffffffffffffffffffffffffffffff1663a9059cbb60e01b1781529251825160009485949389169392918291908083835b602083106117d25780518252601f1990920191602091820191016117b3565b6001836020036101000a0380198251168184511680821785525050505050509050019150506000604051808303816000865af19150503d8060008114611834576040519150601f19603f3d011682016040523d82523d6000602084013e611839565b606091505b5091509150818015611867575080511580611867575080806020019051602081101561186457600080fd5b50515b610611576040805162461bcd60e51b815260206004820152600260248201526114d560f21b604482015290519081900360640190fd5b60006118a98383611ad3565b9050336001600160a01b038216146118c057600080fd5b92915050565b604080516001600160a01b0385811660248301528481166044830152606480830185905283518084039091018152608490920183526020820180517bffffffffffffffffffffffffffffffffffffffffffffffffffffffff166323b872dd60e01b178152925182516000948594938a169392918291908083835b6020831061195f5780518252601f199092019160209182019101611940565b6001836020036101000a0380198251168184511680821785525050505050509050019150506000604051808303816000865af19150503d80600081146119c1576040519150601f19603f3d011682016040523d82523d6000602084013e6119c6565b606091505b50915091508180156119f45750805115806119f457508080602001905160208110156119f157600080fd5b50515b611a2b576040805162461bcd60e51b815260206004820152600360248201526229aa2360e91b604482015290519081900360640190fd5b505050505050565b6000826001600160a01b0316846001600160a01b03161115611a53579192915b6000611a76856001600160a01b0316856001600160a01b0316600160601b610eff565b9050611116611a9184838888036001600160a01b0316610eff565b611bcf565b6000826001600160a01b0316846001600160a01b03161115611ab6579192915b6116d0611a9183600160601b8787036001600160a01b0316610eff565b600081602001516001600160a01b031682600001516001600160a01b031610611afb57600080fd5b50805160208083015160409384015184516001600160a01b0394851681850152939091168385015262ffffff166060808401919091528351808403820181526080840185528051908301207fff0000000000000000000000000000000000000000000000000000000000000060a085015294901b6bffffffffffffffffffffffff191660a183015260b58201939093527fafc936cadc66fde42e5aaf0dc783f4745a29300624a875334d8ff311b37e225b60d5808301919091528251808303909101815260f5909101909152805191012090565b806001600160801b0381168114611be557600080fd5b919050565b604080518082019091526000808252602082015290565b604080516060810182526000808252602082018190529181019190915290565b8035611be581612359565b60006101008284031215611c3e578081fd5b50919050565b805161ffff81168114611be557600080fd5b803562ffffff81168114611be557600080fd5b600060208284031215611c7a578081fd5b8135610fa881612359565b600060208284031215611c96578081fd5b5035919050565b60008060408385031215611caf578081fd5b50508035926020909101359150565b600080600060608486031215611cd2578081fd5b83359250602084013591506040840135611ceb81612359565b809150509250925092565b600060208284031215611d07578081fd5b8135610fa881612371565b600060208284031215611d23578081fd5b8151610fa881612371565b600060208284031215611d3f578081fd5b813567ffffffffffffffff811115611d55578182fd5b6116d084828501611c2c565b600060e08284031215611c3e578081fd5b60008183036080811215611d84578182fd5b6040516040810167ffffffffffffffff8282108183111715611da257fe5b816040526060841215611db3578485fd5b60a0830193508184108185111715611dc757fe5b508260405284359250611dd983612359565b918252602084013591611deb83612359565b826060830152611dfd60408601611c56565b60808301528152611e1060608501611c21565b6020820152949350505050565b600060c08284031215611c3e578081fd5b60006101008284031215611e40578081fd5b610fa88383611c2c565b600060208284031215611e5b578081fd5b8135610fa881612380565b60008060408385031215611e78578182fd5b8251611e8381612380565b6020840151909250611e9481612380565b809150509250929050565b600080600080600080600060e0888a031215611eb9578485fd5b8751611ec481612359565b6020890151909750611ed581612371565b9550611ee360408901611c44565b9450611ef160608901611c44565b9350611eff60808901611c44565b925060a088015160ff81168114611f14578283fd5b60c08901519092508015158114611f29578182fd5b8091505092959891949750929550565b600060208284031215611f4a578081fd5b610fa882611c56565b60008060408385031215611f65578182fd5b505080516020909101519092909150565b60008060008060608587031215611f8b578182fd5b8435935060208501359250604085013567ffffffffffffffff80821115611fb0578384fd5b818701915087601f830112611fc3578384fd5b813581811115611fd1578485fd5b886020828501011115611fe2578485fd5b95989497505060200194505050565b6001600160a01b0391909116815260200190565b6001600160a01b03958616815293909416602084015262ffffff919091166040830152600290810b60608301529190910b608082015260a00190565b60006001600160a01b038716825260208660020b818401528560020b60408401526001600160801b038516606084015260a0608084015283518060a0850152825b8181101561209e5785810183015185820160c001528201612082565b818111156120af578360c083870101525b50601f01601f19169290920160c001979650505050505050565b6001600160a01b03959095168552600293840b60208601529190920b60408401526001600160801b03918216606084015216608082015260a00190565b600293840b81529190920b60208201526001600160801b03909116604082015260600190565b60208082526019908201527f504f534954494f4e5f414c52454144595f5245534f4c56454400000000000000604082015260600190565b60208082526015908201527f4e4f545f454e4f554748545f4c49515549444954590000000000000000000000604082015260600190565b60208082526016908201527f4f52444552535f4c454e4754485f4d49534d4154434800000000000000000000604082015260600190565b6020808252600c908201527f4f55545f4f465f52414e47450000000000000000000000000000000000000000604082015260600190565b60208082526010908201527f4241445f494e5055545f414d4f554e5400000000000000000000000000000000604082015260600190565b6020808252600e908201527f4241445f52414e47455f53495a45000000000000000000000000000000000000604082015260600190565b815180516001600160a01b03908116835260208083015182168185015260409283015162ffffff1692840192909252920151909116606082015260800190565b81516001600160801b0316815260209182015115159181019190915260400190565b6001600160801b0391909116815260200190565b90815260200190565b6000808335601e1984360301811261230b578283fd5b83018035915067ffffffffffffffff821115612325578283fd5b602090810192508102360382131561233c57600080fd5b9250929050565b6000808335601e1984360301811261230b578182fd5b6001600160a01b038116811461236e57600080fd5b50565b8060020b811461236e57600080fd5b6001600160801b038116811461236e57600080fdfea164736f6c6343000706000a",
  "linkReferences": {},
  "deployedLinkReferences": {}
}