{
  "_format": "hh-sol-artifact-1",
  "contractName": "RangeOrderPositionManager",
  "sourceName": "contracts/RangeOrderPositionManager.sol",
  "abi": [
    {
      "inputs": [
        {
          "internalType": "address",
          "name": "_factory",
          "type": "address"
        }
      ],
      "stateMutability": "nonpayable",
      "type": "constructor"
    },
    {
      "inputs": [
        {
          "components": [
            {
              "internalType": "address[]",
              "name": "owners",
              "type": "address[]"
            },
            {
              "internalType": "uint256[]",
              "name": "inputAmounts",
              "type": "uint256[]"
            },
            {
              "internalType": "uint256",
              "name": "totalInputAmount",
              "type": "uint256"
            },
            {
              "internalType": "address",
              "name": "tokenIn",
              "type": "address"
            },
            {
              "internalType": "address",
              "name": "tokenOut",
              "type": "address"
            },
            {
              "internalType": "uint24",
              "name": "fee",
              "type": "uint24"
            },
            {
              "internalType": "int24",
              "name": "tickLower",
              "type": "int24"
            },
            {
              "internalType": "int24",
              "name": "tickUpper",
              "type": "int24"
            }
          ],
          "internalType": "struct IRangeOrderPositionManager.CreateOrdersParams",
          "name": "params",
          "type": "tuple"
        }
      ],
      "name": "createOrders",
      "outputs": [],
      "stateMutability": "nonpayable",
      "type": "function"
    },
    {
      "inputs": [],
      "name": "factory",
      "outputs": [
        {
          "internalType": "address",
          "name": "",
          "type": "address"
        }
      ],
      "stateMutability": "view",
      "type": "function"
    },
    {
      "inputs": [
        {
          "internalType": "bytes32",
          "name": "positionHash",
          "type": "bytes32"
        },
        {
          "internalType": "uint256",
          "name": "positionIndex",
          "type": "uint256"
        },
        {
          "internalType": "address",
          "name": "owner",
          "type": "address"
        }
      ],
      "name": "liquidityBalances",
      "outputs": [
        {
          "internalType": "uint128",
          "name": "liquidityBalance",
          "type": "uint128"
        }
      ],
      "stateMutability": "view",
      "type": "function"
    },
    {
      "inputs": [
        {
          "internalType": "bytes32",
          "name": "positionHash",
          "type": "bytes32"
        }
      ],
      "name": "positionIndexes",
      "outputs": [
        {
          "internalType": "uint256",
          "name": "positionIndex",
          "type": "uint256"
        }
      ],
      "stateMutability": "view",
      "type": "function"
    },
    {
      "inputs": [
        {
          "internalType": "bytes32",
          "name": "positionHash",
          "type": "bytes32"
        },
        {
          "internalType": "uint256",
          "name": "positionIndex",
          "type": "uint256"
        }
      ],
      "name": "positions",
      "outputs": [
        {
          "components": [
            {
              "internalType": "uint128",
              "name": "liquidity",
              "type": "uint128"
            },
            {
              "internalType": "bool",
              "name": "resolved",
              "type": "bool"
            }
          ],
          "internalType": "struct IRangeOrderPositionManager.Position",
          "name": "position",
          "type": "tuple"
        }
      ],
      "stateMutability": "view",
      "type": "function"
    },
    {
      "inputs": [
        {
          "components": [
            {
              "internalType": "address",
              "name": "tokenIn",
              "type": "address"
            },
            {
              "internalType": "address",
              "name": "tokenOut",
              "type": "address"
            },
            {
              "internalType": "uint24",
              "name": "fee",
              "type": "uint24"
            },
            {
              "internalType": "int24",
              "name": "tickLower",
              "type": "int24"
            },
            {
              "internalType": "int24",
              "name": "tickUpper",
              "type": "int24"
            },
            {
              "internalType": "address",
              "name": "recipient",
              "type": "address"
            }
          ],
          "internalType": "struct IRangeOrderPositionManager.ResolvePositionParams",
          "name": "params",
          "type": "tuple"
        }
      ],
      "name": "resolvePosition",
      "outputs": [],
      "stateMutability": "nonpayable",
      "type": "function"
    },
    {
      "inputs": [
        {
          "internalType": "uint256",
          "name": "amount0Owed",
          "type": "uint256"
        },
        {
          "internalType": "uint256",
          "name": "amount1Owed",
          "type": "uint256"
        },
        {
          "internalType": "bytes",
          "name": "data",
          "type": "bytes"
        }
      ],
      "name": "uniswapV3MintCallback",
      "outputs": [],
      "stateMutability": "nonpayable",
      "type": "function"
    },
    {
      "inputs": [
        {
          "components": [
            {
              "internalType": "uint256",
              "name": "positionIndex",
              "type": "uint256"
            },
            {
              "internalType": "address",
              "name": "tokenIn",
              "type": "address"
            },
            {
              "internalType": "address",
              "name": "tokenOut",
              "type": "address"
            },
            {
              "internalType": "uint24",
              "name": "fee",
              "type": "uint24"
            },
            {
              "internalType": "int24",
              "name": "tickLower",
              "type": "int24"
            },
            {
              "internalType": "int24",
              "name": "tickUpper",
              "type": "int24"
            },
            {
              "internalType": "uint128",
              "name": "liquidity",
              "type": "uint128"
            },
            {
              "internalType": "address",
              "name": "recipient",
              "type": "address"
            }
          ],
          "internalType": "struct IRangeOrderPositionManager.WithdrawParams",
          "name": "params",
          "type": "tuple"
        }
      ],
      "name": "withdrawOrder",
      "outputs": [],
      "stateMutability": "nonpayable",
      "type": "function"
    }
  ],
  "bytecode": "0x60a060405234801561001057600080fd5b50604051620023d2380380620023d283398101604081905261003191610046565b60601b6001600160601b031916608052610074565b600060208284031215610057578081fd5b81516001600160a01b038116811461006d578182fd5b9392505050565b60805160601c6123366200009c60003980610e1c5280610e655280610fa052506123366000f3fe608060405234801561001057600080fd5b50600436106100885760003560e01c8063c45a01551161005b578063c45a0155146100f1578063d0d9ee7914610106578063d348799714610126578063fe990ed61461013957610088565b8063433421181461008d5780636355a3d2146100a25780639325d1f9146100cb57806395f7b891146100de575b600080fd5b6100a061009b366004611d7a565b610159565b005b6100b56100b0366004611c24565b6103f0565b6040516100c2919061226c565b60405180910390f35b6100a06100d9366004611d8b565b610427565b6100a06100ec366004611c94565b610869565b6100f9610e1a565b6040516100c29190611f4e565b610119610114366004611beb565b610e3e565b6040516100c29190612280565b6100a0610134366004611ed3565b610e50565b61014c610147366004611c03565b610ece565b6040516100c2919061224a565b60006101686020830183611bcf565b6101786040840160208501611bcf565b6101886060850160408601611e96565b6101986080860160608701611c5c565b6101a860a0870160808801611c5c565b6040516020016101bc959493929190611f62565b60408051808303601f1901815291815281516020928301206000818152600184528281208185528382205482529093529120805491925090600160801b900460ff16156102245760405162461bcd60e51b815260040161021b90612089565b60405180910390fd5b60006102366040850160208601611bcf565b6001600160a01b031661024c6020860186611bcf565b6001600160a01b0316109050600061028f61026a6020870187611bcf565b61027a6040880160208901611bcf565b61028a6060890160408a01611e96565b610f1d565b5090506000816001600160a01b0316633850c7bd6040518163ffffffff1660e01b815260040160e06040518083038186803b1580156102cd57600080fd5b505afa1580156102e1573d6000803e3d6000fd5b505050506040513d601f19601f820116820180604052508101906103059190611dfc565b5050505050915050821561034d5761032360a0870160808801611c5c565b60020b8160020b12156103485760405162461bcd60e51b815260040161021b9061212e565b610381565b61035d6080870160608801611c5c565b60020b8160020b126103815760405162461bcd60e51b815260040161021b906121d3565b60008061039460c0890160a08a01611bcf565b6001600160a01b0316146103b7576103b260c0880160a08901611bcf565b6103b9565b335b90506103e78684866103d160808c0160608d01611c5c565b6103e160a08d0160808e01611c5c565b86610fcf565b50505050505050565b60009283526002602090815260408085209385529281528284206001600160a01b039092168452529020546001600160801b031690565b60006104396040830160208401611bcf565b6104496060840160408501611bcf565b6104596080850160608601611e96565b61046960a0860160808701611c5c565b61047960c0870160a08801611c5c565b60405160200161048d959493929190611f62565b60408051601f1981840301815291815281516020928301206000818152600284528281208635825284528281203382529093529120549091506001600160801b0316806104e060e0850160c08601611da7565b6001600160801b031611156105075760405162461bcd60e51b815260040161021b906120c0565b60008281526001602090815260408083208635845290915280822091906105349060608701908701611bcf565b6001600160a01b031661054d6040870160208801611bcf565b6001600160a01b031610905060008061056d610100880160e08901611bcf565b6001600160a01b0316146105915761058c610100870160e08801611bcf565b610593565b335b8354909150600090600160801b900460ff166107285760006105de6105be60408a0160208b01611bcf565b6105ce60608b0160408c01611bcf565b61028a60808c0160608d01611e96565b5090506000816001600160a01b0316633850c7bd6040518163ffffffff1660e01b815260040160e06040518083038186803b15801561061c57600080fd5b505afa158015610630573d6000803e3d6000fd5b505050506040513d601f19601f820116820180604052508101906106549190611dfc565b505050505091505084151560011515148015610685575061067b60c08a0160a08b01611c5c565b60020b8160020b12155b806106ad5750841580156106ad57506106a460a08a0160808b01611c5c565b60020b8160020b125b156106e6576106e18883876106c860a08e0160808f01611c5c565b8d60a00160208101906106db9190611c5c565b89610fcf565b610725565b610720826106fa60a08c0160808d01611c5c565b61070a60c08d0160a08e01611c5c565b61071a60e08e0160c08f01611da7565b886110f2565b600192505b50505b806107c85760008061074861074360a08b0160808c01611c5c565b61120b565b9050600061075f61074360c08c0160a08d01611c5c565b90506001861515141561078d57610786828261078160e08e0160c08f01611da7565b61153d565b92506107aa565b6107a782826107a260e08e0160c08f01611da7565b61158a565b92505b6107c46107bd60608c0160408d01611bcf565b86856115f3565b5050505b6107d860e0880160c08901611da7565b84546fffffffffffffffffffffffffffffffff1981166001600160801b03918216929092031617845561081160e0880160c08901611da7565b60009687526002602090815260408089209935895298815288882033895290529690952080546fffffffffffffffffffffffffffffffff1981166001600160801b039182169890980316969096179095555050505050565b61087660208201826122d7565b90506108828280612289565b9050146108a15760405162461bcd60e51b815260040161021b906120f7565b60006108b36080830160608401611bcf565b6108c360a0840160808501611bcf565b6108d360c0850160a08601611e96565b6108e360e0860160c08701611c5c565b6108f4610100870160e08801611c5c565b604051602001610908959493929190611f62565b60408051601f1981840301815291815281516020928301206000818152808452828120546001855283822081835290945291822090935090806109746109546080880160608901611bcf565b61096460a0890160808a01611bcf565b61028a60c08a0160a08b01611e96565b915091506000826001600160a01b0316633850c7bd6040518163ffffffff1660e01b815260040160e06040518083038186803b1580156109b357600080fd5b505afa1580156109c7573d6000803e3d6000fd5b505050506040513d601f19601f820116820180604052508101906109eb9190611dfc565b5050505050915050866080016020810190610a069190611bcf565b6001600160a01b0316610a1f6080890160608a01611bcf565b6001600160a01b03161015610a6757610a3e60e0880160c08901611c5c565b60020b8160020b12610a625760405162461bcd60e51b815260040161021b906121d3565b610a9d565b610a78610100880160e08901611c5c565b60020b8160020b1215610a9d5760405162461bcd60e51b815260040161021b9061212e565b826001600160a01b031663d0c93a7c6040518163ffffffff1660e01b815260040160206040518083038186803b158015610ad657600080fd5b505afa158015610aea573d6000803e3d6000fd5b505050506040513d601f19601f82011682018060405250810190610b0e9190611c78565b60020b610b2160e0890160c08a01611c5c565b610b326101008a0160e08b01611c5c565b0360020b14610b535760405162461bcd60e51b815260040161021b9061219c565b600080610b6961074360e08b0160c08c01611c5c565b90506000610b816107436101008c0160e08d01611c5c565b9050610b9360a08b0160808c01611bcf565b6001600160a01b0316610bac60808c0160608d01611bcf565b6001600160a01b03161015610bd157610bca82828c6040013561174f565b9250610be3565b610be082828c604001356117bb565b92505b50506001600160a01b038416633c8a7d8d30610c0560e08c0160c08d01611c5c565b610c166101008d0160e08e01611c5c565b8560405180604001604052808a8152602001336001600160a01b0316815250604051602001610c45919061220a565b6040516020818303038152906040526040518663ffffffff1660e01b8152600401610c74959493929190611f9e565b6040805180830381600087803b158015610c8d57600080fd5b505af1158015610ca1573d6000803e3d6000fd5b505050506040513d601f19601f82011682018060405250810190610cc59190611eb0565b5060009050805b610cd960208b018b6122d7565b90508160ff161015610dc3576000610cf460208c018c6122d7565b8360ff16818110610d0157fe5b90506020020135905080830192506000610d2982866001600160801b03168e604001356117f4565b60008c81526002602090815260408083208e84529091528120919250829190610d528f80612289565b8760ff16818110610d5f57fe5b9050602002016020810190610d749190611bcf565b6001600160a01b03168152602081019190915260400160002080546fffffffffffffffffffffffffffffffff1981166001600160801b0391821693909301169190911790555050600101610ccc565b5088604001358114610de75760405162461bcd60e51b815260040161021b90612165565b5084546fffffffffffffffffffffffffffffffff1981166001600160801b03918216929092011617909355505050505050565b7f000000000000000000000000000000000000000000000000000000000000000081565b60009081526020819052604090205490565b6000610e5e82840184611ccf565b9050610e8e7f000000000000000000000000000000000000000000000000000000000000000082600001516118a3565b508415610ea9578051516020820151610ea9919033886118cc565b8315610ec757610ec7816000015160200151826020015133876118cc565b5050505050565b610ed6611b50565b506000918252600160209081526040808420928452918152918190208151808301909252546001600160801b0381168252600160801b900460ff1615159181019190915290565b6000610f27611b67565b6040518060600160405280856001600160a01b0316876001600160a01b031610610f515785610f53565b865b6001600160a01b03168152602001856001600160a01b0316876001600160a01b031610610f805786610f82565b855b6001600160a01b031681526020018462ffffff168152509050610fc57f000000000000000000000000000000000000000000000000000000000000000082611a39565b9150935093915050565b600086815260016020908152604080832083835281842054845290915290208054611009908790869086906001600160801b0316306110f2565b856001600160a01b0316634f1eb3d88386868961102d576001600160801b03611030565b60005b8a61103c576000611045565b6001600160801b035b6040518663ffffffff1660e01b8152600401611065959493929190612026565b6040805180830381600087803b15801561107e57600080fd5b505af1158015611092573d6000803e3d6000fd5b505050506040513d601f19601f820116820180604052508101906110b69190611dc3565b5050805470ff000000000000000000000000000000001916600160801b1790555050506000928352505060208190526040902080546001019055565b600080866001600160a01b031663a34123a78787876040518463ffffffff1660e01b815260040161112593929190612063565b6040805180830381600087803b15801561113e57600080fd5b505af1158015611152573d6000803e3d6000fd5b505050506040513d601f19601f820116820180604052508101906111769190611eb0565b6040516309e3d67b60e31b815291935091506001600160a01b03881690634f1eb3d8906111af9086908a908a9088908890600401612026565b6040805180830381600087803b1580156111c857600080fd5b505af11580156111dc573d6000803e3d6000fd5b505050506040513d601f19601f820116820180604052508101906112009190611dc3565b505050505050505050565b60008060008360020b12611222578260020b61122a565b8260020b6000035b9050620d89e8811115611268576040805162461bcd60e51b81526020600482015260016024820152601560fa1b604482015290519081900360640190fd5b60006001821661127c57600160801b61128e565b6ffffcb933bd6fad37aa2d162d1a5940015b70ffffffffffffffffffffffffffffffffff16905060028216156112c2576ffff97272373d413259a46990580e213a0260801c5b60048216156112e1576ffff2e50f5f656932ef12357cf3c7fdcc0260801c5b6008821615611300576fffe5caca7e10e4e61c3624eaa0941cd00260801c5b601082161561131f576fffcb9843d60f6159c9db58835c9266440260801c5b602082161561133e576fff973b41fa98c081472e6896dfb254c00260801c5b604082161561135d576fff2ea16466c96a3843ec78b326b528610260801c5b608082161561137c576ffe5dee046a99a2a811c461f1969c30530260801c5b61010082161561139c576ffcbe86c7900a88aedcffc83b479aa3a40260801c5b6102008216156113bc576ff987a7253ac413176f2b074cf7815e540260801c5b6104008216156113dc576ff3392b0822b70005940c7a398e4b70f30260801c5b6108008216156113fc576fe7159475a2c29b7443b29c7fa6e889d90260801c5b61100082161561141c576fd097f3bdfd2022b8845ad8f792aa58250260801c5b61200082161561143c576fa9f746462d870fdf8a65dc1f90e061e50260801c5b61400082161561145c576f70d869a156d2a1b890bb3df62baf32f70260801c5b61800082161561147c576f31be135f97d08fd981231505542fcfa60260801c5b6201000082161561149d576f09aa508b5b7a84e1c677de54f3e99bc90260801c5b620200008216156114bd576e5d6af8dedb81196699c329225ee6040260801c5b620400008216156114dc576d2216e584f5fa1ea926041bedfe980260801c5b620800008216156114f9576b048a170391f7dc42444e8fa20260801c5b60008460020b131561151457806000198161151057fe5b0490505b64010000000081061561152857600161152b565b60005b60ff16602082901c0192505050919050565b6000826001600160a01b0316846001600160a01b0316111561155d579192915b611580826001600160801b03168585036001600160a01b0316600160601b6117f4565b90505b9392505050565b6000826001600160a01b0316846001600160a01b031611156115aa579192915b836001600160a01b03166115e3606060ff16846001600160801b0316901b8686036001600160a01b0316866001600160a01b03166117f4565b816115ea57fe5b04949350505050565b604080516001600160a01b038481166024830152604480830185905283518084039091018152606490920183526020820180517bffffffffffffffffffffffffffffffffffffffffffffffffffffffff1663a9059cbb60e01b1781529251825160009485949389169392918291908083835b602083106116845780518252601f199092019160209182019101611665565b6001836020036101000a0380198251168184511680821785525050505050509050019150506000604051808303816000865af19150503d80600081146116e6576040519150601f19603f3d011682016040523d82523d6000602084013e6116eb565b606091505b5091509150818015611719575080511580611719575080806020019051602081101561171657600080fd5b50515b610ec7576040805162461bcd60e51b815260206004820152600260248201526114d560f21b604482015290519081900360640190fd5b6000826001600160a01b0316846001600160a01b0316111561176f579192915b6000611792856001600160a01b0316856001600160a01b0316600160601b6117f4565b90506117b26117ad84838888036001600160a01b03166117f4565b611b35565b95945050505050565b6000826001600160a01b0316846001600160a01b031611156117db579192915b6115806117ad83600160601b8787036001600160a01b03165b600080806000198587098686029250828110908390030390508061182a576000841161181f57600080fd5b508290049050611583565b80841161183657600080fd5b6000848688096000868103871696879004966002600389028118808a02820302808a02820302808a02820302808a02820302808a02820302808a02909103029181900381900460010186841190950394909402919094039290920491909117919091029150509392505050565b60006118af8383611a39565b9050336001600160a01b038216146118c657600080fd5b92915050565b604080516001600160a01b0385811660248301528481166044830152606480830185905283518084039091018152608490920183526020820180517bffffffffffffffffffffffffffffffffffffffffffffffffffffffff166323b872dd60e01b178152925182516000948594938a169392918291908083835b602083106119655780518252601f199092019160209182019101611946565b6001836020036101000a0380198251168184511680821785525050505050509050019150506000604051808303816000865af19150503d80600081146119c7576040519150601f19603f3d011682016040523d82523d6000602084013e6119cc565b606091505b50915091508180156119fa5750805115806119fa57508080602001905160208110156119f757600080fd5b50515b611a31576040805162461bcd60e51b815260206004820152600360248201526229aa2360e91b604482015290519081900360640190fd5b505050505050565b600081602001516001600160a01b031682600001516001600160a01b031610611a6157600080fd5b50805160208083015160409384015184516001600160a01b0394851681850152939091168385015262ffffff166060808401919091528351808403820181526080840185528051908301207fff0000000000000000000000000000000000000000000000000000000000000060a085015294901b6bffffffffffffffffffffffff191660a183015260b58201939093527fafc936cadc66fde42e5aaf0dc783f4745a29300624a875334d8ff311b37e225b60d5808301919091528251808303909101815260f5909101909152805191012090565b806001600160801b0381168114611b4b57600080fd5b919050565b604080518082019091526000808252602082015290565b604080516060810182526000808252602082018190529181019190915290565b8035611b4b816122ed565b60006101008284031215611ba4578081fd5b50919050565b805161ffff81168114611b4b57600080fd5b803562ffffff81168114611b4b57600080fd5b600060208284031215611be0578081fd5b8135611583816122ed565b600060208284031215611bfc578081fd5b5035919050565b60008060408385031215611c15578081fd5b50508035926020909101359150565b600080600060608486031215611c38578081fd5b83359250602084013591506040840135611c51816122ed565b809150509250925092565b600060208284031215611c6d578081fd5b813561158381612305565b600060208284031215611c89578081fd5b815161158381612305565b600060208284031215611ca5578081fd5b813567ffffffffffffffff811115611cbb578182fd5b611cc784828501611b92565b949350505050565b60008183036080811215611ce1578182fd5b6040516040810167ffffffffffffffff8282108183111715611cff57fe5b816040526060841215611d10578485fd5b60a0830193508184108185111715611d2457fe5b508260405284359250611d36836122ed565b918252602084013591611d48836122ed565b826060830152611d5a60408601611bbc565b60808301528152611d6d60608501611b87565b6020820152949350505050565b600060c08284031215611ba4578081fd5b60006101008284031215611d9d578081fd5b6115838383611b92565b600060208284031215611db8578081fd5b813561158381612314565b60008060408385031215611dd5578182fd5b8251611de081612314565b6020840151909250611df181612314565b809150509250929050565b600080600080600080600060e0888a031215611e16578485fd5b8751611e21816122ed565b6020890151909750611e3281612305565b9550611e4060408901611baa565b9450611e4e60608901611baa565b9350611e5c60808901611baa565b925060a088015160ff81168114611e71578283fd5b60c08901519092508015158114611e86578182fd5b8091505092959891949750929550565b600060208284031215611ea7578081fd5b61158382611bbc565b60008060408385031215611ec2578182fd5b505080516020909101519092909150565b60008060008060608587031215611ee8578182fd5b8435935060208501359250604085013567ffffffffffffffff80821115611f0d578384fd5b818701915087601f830112611f20578384fd5b813581811115611f2e578485fd5b886020828501011115611f3f578485fd5b95989497505060200194505050565b6001600160a01b0391909116815260200190565b6001600160a01b03958616815293909416602084015262ffffff919091166040830152600290810b60608301529190910b608082015260a00190565b60006001600160a01b038716825260208660020b818401528560020b60408401526001600160801b038516606084015260a0608084015283518060a0850152825b81811015611ffb5785810183015185820160c001528201611fdf565b8181111561200c578360c083870101525b50601f01601f19169290920160c001979650505050505050565b6001600160a01b03959095168552600293840b60208601529190920b60408401526001600160801b03918216606084015216608082015260a00190565b600293840b81529190920b60208201526001600160801b03909116604082015260600190565b60208082526019908201527f504f534954494f4e5f414c52454144595f5245534f4c56454400000000000000604082015260600190565b60208082526015908201527f4e4f545f454e4f554748545f4c49515549444954590000000000000000000000604082015260600190565b60208082526016908201527f4f52444552535f4c454e4754485f4d49534d4154434800000000000000000000604082015260600190565b6020808252600e908201527f52414e47455f544f4f5f48494748000000000000000000000000000000000000604082015260600190565b60208082526010908201527f4241445f494e5055545f414d4f554e5400000000000000000000000000000000604082015260600190565b6020808252600e908201527f4241445f52414e47455f53495a45000000000000000000000000000000000000604082015260600190565b6020808252600d908201527f52414e47455f544f4f5f4c4f5700000000000000000000000000000000000000604082015260600190565b815180516001600160a01b03908116835260208083015182168185015260409283015162ffffff1692840192909252920151909116606082015260800190565b81516001600160801b0316815260209182015115159181019190915260400190565b6001600160801b0391909116815260200190565b90815260200190565b6000808335601e1984360301811261229f578283fd5b83018035915067ffffffffffffffff8211156122b9578283fd5b60209081019250810236038213156122d057600080fd5b9250929050565b6000808335601e1984360301811261229f578182fd5b6001600160a01b038116811461230257600080fd5b50565b8060020b811461230257600080fd5b6001600160801b038116811461230257600080fdfea164736f6c6343000706000a",
  "linkReferences": {},
  "deployedLinkReferences": {}
}